{
  "_format": "hh-sol-artifact-1",
  "contractName": "Chainrunner",
  "sourceName": "contracts/Chainrunner.sol",
  "abi": [
    {
      "inputs": [],
      "stateMutability": "nonpayable",
      "type": "constructor"
    },
    {
      "stateMutability": "payable",
      "type": "fallback"
    },
    {
      "inputs": [
        {
          "internalType": "address[]",
          "name": "route",
          "type": "address[]"
        }
      ],
      "name": "GetMetaData",
      "outputs": [
        {
          "internalType": "bytes32[]",
          "name": "MetaData",
          "type": "bytes32[]"
        }
      ],
      "stateMutability": "view",
      "type": "function"
    },
    {
      "inputs": [
        {
          "internalType": "uint256",
          "name": "AmountIn",
          "type": "uint256"
        },
        {
          "internalType": "bytes32[]",
          "name": "MetaDataEncrypted",
          "type": "bytes32[]"
        },
        {
          "internalType": "uint8",
          "name": "Chi",
          "type": "uint8"
        },
        {
          "internalType": "uint8",
          "name": "VerifyFlag",
          "type": "uint8"
        }
      ],
      "name": "_swapSupportingFeesV4",
      "outputs": [
        {
          "internalType": "uint256",
          "name": "AmountOut",
          "type": "uint256"
        },
        {
          "internalType": "uint256",
          "name": "GasUsed",
          "type": "uint256"
        }
      ],
      "stateMutability": "payable",
      "type": "function"
    },
    {
      "inputs": [
        {
          "internalType": "uint256",
          "name": "amountIn",
          "type": "uint256"
        },
        {
          "internalType": "bytes32[]",
          "name": "MetaDataEncrypted",
          "type": "bytes32[]"
        },
        {
          "internalType": "uint8",
          "name": "VerifyFlag",
          "type": "uint8"
        }
      ],
      "name": "getAmountOutV4",
      "outputs": [
        {
          "internalType": "bytes32[]",
          "name": "Out",
          "type": "bytes32[]"
        }
      ],
      "stateMutability": "view",
      "type": "function"
    },
    {
      "inputs": [
        {
          "internalType": "bytes",
          "name": "payouts",
          "type": "bytes"
        }
      ],
      "name": "payout",
      "outputs": [],
      "stateMutability": "nonpayable",
      "type": "function"
    },
    {
      "inputs": [
        {
          "internalType": "address",
          "name": "_o",
          "type": "address"
        }
      ],
      "name": "setOwner",
      "outputs": [],
      "stateMutability": "nonpayable",
      "type": "function"
    },
    {
      "stateMutability": "payable",
      "type": "receive"
    }
  ],
  "bytecode": "0x608060405234801561001057600080fd5b50336000806101000a81548173ffffffffffffffffffffffffffffffffffffffff021916908373ffffffffffffffffffffffffffffffffffffffff160217905550611613806100606000396000f3fe60806040526004361061004e5760003560e01c806313af403514610057578063253227f114610080578063376ee895146100a9578063a928ba1e146100da578063e865f6401461011757610055565b3661005557005b005b34801561006357600080fd5b5061007e60048036038101906100799190610d9b565b610154565b005b34801561008c57600080fd5b506100a760048036038101906100a29190610e2d565b6101ef565b005b6100c360048036038101906100be919061106e565b6102ff565b6040516100d1929190611100565b60405180910390f35b3480156100e657600080fd5b5061010160048036038101906100fc91906111ec565b610739565b60405161010e91906112f3565b60405180910390f35b34801561012357600080fd5b5061013e60048036038101906101399190611315565b610933565b60405161014b91906112f3565b60405180910390f35b60008054906101000a900473ffffffffffffffffffffffffffffffffffffffff1673ffffffffffffffffffffffffffffffffffffffff163373ffffffffffffffffffffffffffffffffffffffff16146101ac57600080fd5b806000806101000a81548173ffffffffffffffffffffffffffffffffffffffff021916908373ffffffffffffffffffffffffffffffffffffffff16021790555050565b60008054906101000a900473ffffffffffffffffffffffffffffffffffffffff1673ffffffffffffffffffffffffffffffffffffffff163373ffffffffffffffffffffffffffffffffffffffff161461027d576040517f08c379a0000000000000000000000000000000000000000000000000000000008152600401610274906113e1565b60405180910390fd5b610294828281019061028f91906111ec565b610b3a565b60008054906101000a900473ffffffffffffffffffffffffffffffffffffffff1673ffffffffffffffffffffffffffffffffffffffff166108fc479081150290604051600060405180830381858888f193505050501580156102fa573d6000803e3d6000fd5b505050565b60008060008054906101000a900473ffffffffffffffffffffffffffffffffffffffff1673ffffffffffffffffffffffffffffffffffffffff163373ffffffffffffffffffffffffffffffffffffffff161461035a57600080fd5b6000610367878786610933565b90506103bc565b7f08c379a0000000000000000000000000000000000000000000000000000000006000527c200000000000000000000000000000000000000000000000000000000060205280604052816000fd5b6040518793506020820160106020890151036040890173ffffffffffffffffffffffffffffffffffffffff6010825103167f23b872dd0000000000000000000000000000000000000000000000000000000085523360048601528060248601528b60448601526000806064876000875af1610436573d6000fd5b7c11696e76616c696420300000000000000000000000000000000000000060208c510260208403015b808410156106cb577f0ffff0000000000000000000000000000000000000000000000000000000000084511660ec1c73ffffffffffffffffffffffffffffffffffffffff60108651031693507f70a0823100000000000000000000000000000000000000000000000000000000885283600489015260208860248a895afa6104eb573d6000803e3d6000fd5b6010602086015103955060007ff0000000000000000000000000000000000000000000000000000000000000008651161460018114610577578160208901518a5103029b506127106020890151028c0188518d02049b507f022c0d9f0000000000000000000000000000000000000000000000000000000089528b60048a0152600060248a01526105c3565b8188518a5103029b506127108851028c0160208901518d02049b507f022c0d9f000000000000000000000000000000000000000000000000000000008952600060048a01528b60248a01525b50604082038510600181146105df57600081146106345761069f565b73ffffffffffffffffffffffffffffffffffffffff60106040880151031660448a0152608060648a0152600060848a015260008060a48b600060108b51035af161062f5761062e60558561036e565b5b61069f565b60018d141561066f578f8c101561066e5761066d605a7c164d696e2072657475726e206e6f74207265616368656400000000000061036e565b5b5b3360448a0152608060648a0152600060848a015260008060a48b6000895af161069e5761069d60558561036e565b5b5b50604087019650730100000000000000000000000000000000000000830192505060408401935061045f565b5060008b1115610726577fd8ccd0f30000000000000000000000000000000000000000000000000000000086528a600487015260008060448860006d4946c0e9f43f4dee607b0ef1fa1c5af1610725573d6000803e3d6000fd5b5b5a97505050505050505094509492505050565b6060600882516107499190611430565b67ffffffffffffffff81111561076257610761610ec1565b5b6040519080825280602002602001820160405280156107905781602001602082028036833780820191505090505b509050604051825160208401602084016020830282015b808310156109295782518083528060208401527f0dfe16810000000000000000000000000000000000000000000000000000000086526001602087600489855afa14156107f657855160208401525b8060408401527f313ce567000000000000000000000000000000000000000000000000000000008652600160208760048960208801515afa141561083c57855160408401525b8060608401527fd21220a70000000000000000000000000000000000000000000000000000000086526001602087600489855afa141561087e57855160608401525b8060808401527f313ce567000000000000000000000000000000000000000000000000000000008652600160208760048960608801515afa14156108c457855160808401525b8060a48401528060c48401527f0902f1ac0000000000000000000000000000000000000000000000000000000086526001604087600489855afa141561091657855160a4840152602086015160c48401525b61010083019250506020830192506107a7565b5050505050919050565b6060825167ffffffffffffffff8111156109505761094f610ec1565b5b60405190808252806020026020018201604052801561097e5781602001602082028036833780820191505090505b5090506109d4565b7f08c379a0000000000000000000000000000000000000000000000000000000006000527c200000000000000000000000000000000000000000000000000000000060205280604052816000fd5b604051602082016040850186602087510260208303015b80831015610af0577f0ffff0000000000000000000000000000000000000000000000000000000000083511660ec1c7f0902f1ac00000000000000000000000000000000000000000000000000000000865260408660048873ffffffffffffffffffffffffffffffffffffffff6010895103165afa610a6e573d6000803e3d6000fd5b60007ff0000000000000000000000000000000000000000000000000000000000000008551161460018114610ab85761271060208801510282850201828502885102049350610acf565b612710875102828502018285026020890151020493505b508551855260208601516020860152604085019450506040830192506109eb565b506001861415610b2c5787811015610b2b57610b2a605a7c164d696e2072657475726e206e6f742072656163686564000000000000610986565b5b5b808352505050509392505050565b60005b81518160ff161015610d25576001151560016000848460ff1681518110610b6757610b6661148a565b5b602002602001015173ffffffffffffffffffffffffffffffffffffffff1673ffffffffffffffffffffffffffffffffffffffff16815260200190815260200160002060009054906101000a900460ff1615151415610d1257818160ff1681518110610bd557610bd461148a565b5b602002602001015173ffffffffffffffffffffffffffffffffffffffff1663a9059cbb60008054906101000a900473ffffffffffffffffffffffffffffffffffffffff16848460ff1681518110610c2f57610c2e61148a565b5b602002602001015173ffffffffffffffffffffffffffffffffffffffff166370a08231306040518263ffffffff1660e01b8152600401610c6f91906114c8565b602060405180830381865afa158015610c8c573d6000803e3d6000fd5b505050506040513d601f19601f82011682018060405250810190610cb091906114f8565b6040518363ffffffff1660e01b8152600401610ccd929190611525565b6020604051808303816000875af1158015610cec573d6000803e3d6000fd5b505050506040513d601f19601f82011682018060405250810190610d109190611586565b505b8080610d1d906115b3565b915050610b3d565b5050565b6000604051905090565b600080fd5b600080fd5b600073ffffffffffffffffffffffffffffffffffffffff82169050919050565b6000610d6882610d3d565b9050919050565b610d7881610d5d565b8114610d8357600080fd5b50565b600081359050610d9581610d6f565b92915050565b600060208284031215610db157610db0610d33565b5b6000610dbf84828501610d86565b91505092915050565b600080fd5b600080fd5b600080fd5b60008083601f840112610ded57610dec610dc8565b5b8235905067ffffffffffffffff811115610e0a57610e09610dcd565b5b602083019150836001820283011115610e2657610e25610dd2565b5b9250929050565b60008060208385031215610e4457610e43610d33565b5b600083013567ffffffffffffffff811115610e6257610e61610d38565b5b610e6e85828601610dd7565b92509250509250929050565b6000819050919050565b610e8d81610e7a565b8114610e9857600080fd5b50565b600081359050610eaa81610e84565b92915050565b6000601f19601f8301169050919050565b7f4e487b7100000000000000000000000000000000000000000000000000000000600052604160045260246000fd5b610ef982610eb0565b810181811067ffffffffffffffff82111715610f1857610f17610ec1565b5b80604052505050565b6000610f2b610d29565b9050610f378282610ef0565b919050565b600067ffffffffffffffff821115610f5757610f56610ec1565b5b602082029050602081019050919050565b6000819050919050565b610f7b81610f68565b8114610f8657600080fd5b50565b600081359050610f9881610f72565b92915050565b6000610fb1610fac84610f3c565b610f21565b90508083825260208201905060208402830185811115610fd457610fd3610dd2565b5b835b81811015610ffd5780610fe98882610f89565b845260208401935050602081019050610fd6565b5050509392505050565b600082601f83011261101c5761101b610dc8565b5b813561102c848260208601610f9e565b91505092915050565b600060ff82169050919050565b61104b81611035565b811461105657600080fd5b50565b60008135905061106881611042565b92915050565b6000806000806080858703121561108857611087610d33565b5b600061109687828801610e9b565b945050602085013567ffffffffffffffff8111156110b7576110b6610d38565b5b6110c387828801611007565b93505060406110d487828801611059565b92505060606110e587828801611059565b91505092959194509250565b6110fa81610e7a565b82525050565b600060408201905061111560008301856110f1565b61112260208301846110f1565b9392505050565b600067ffffffffffffffff82111561114457611143610ec1565b5b602082029050602081019050919050565b600061116861116384611129565b610f21565b9050808382526020820190506020840283018581111561118b5761118a610dd2565b5b835b818110156111b457806111a08882610d86565b84526020840193505060208101905061118d565b5050509392505050565b600082601f8301126111d3576111d2610dc8565b5b81356111e3848260208601611155565b91505092915050565b60006020828403121561120257611201610d33565b5b600082013567ffffffffffffffff8111156112205761121f610d38565b5b61122c848285016111be565b91505092915050565b600081519050919050565b600082825260208201905092915050565b6000819050602082019050919050565b61126a81610f68565b82525050565b600061127c8383611261565b60208301905092915050565b6000602082019050919050565b60006112a082611235565b6112aa8185611240565b93506112b583611251565b8060005b838110156112e65781516112cd8882611270565b97506112d883611288565b9250506001810190506112b9565b5085935050505092915050565b6000602082019050818103600083015261130d8184611295565b905092915050565b60008060006060848603121561132e5761132d610d33565b5b600061133c86828701610e9b565b935050602084013567ffffffffffffffff81111561135d5761135c610d38565b5b61136986828701611007565b925050604061137a86828701611059565b9150509250925092565b600082825260208201905092915050565b7f216f776e65720000000000000000000000000000000000000000000000000000600082015250565b60006113cb600683611384565b91506113d682611395565b602082019050919050565b600060208201905081810360008301526113fa816113be565b9050919050565b7f4e487b7100000000000000000000000000000000000000000000000000000000600052601160045260246000fd5b600061143b82610e7a565b915061144683610e7a565b9250817fffffffffffffffffffffffffffffffffffffffffffffffffffffffffffffffff048311821515161561147f5761147e611401565b5b828202905092915050565b7f4e487b7100000000000000000000000000000000000000000000000000000000600052603260045260246000fd5b6114c281610d5d565b82525050565b60006020820190506114dd60008301846114b9565b92915050565b6000815190506114f281610e84565b92915050565b60006020828403121561150e5761150d610d33565b5b600061151c848285016114e3565b91505092915050565b600060408201905061153a60008301856114b9565b61154760208301846110f1565b9392505050565b60008115159050919050565b6115638161154e565b811461156e57600080fd5b50565b6000815190506115808161155a565b92915050565b60006020828403121561159c5761159b610d33565b5b60006115aa84828501611571565b91505092915050565b60006115be82611035565b915060ff8214156115d2576115d1611401565b5b60018201905091905056fea2646970667358221220a699d9fea614b061c12d9f027f7552e7cbca79903bb0777d6624392097cfef4764736f6c634300080a0033",
  "linkReferences": {},
  "deployedLinkReferences": {}
}