{
  "_format": "hh-sol-artifact-1",
  "contractName": "Chainrunner",
  "sourceName": "contracts/Chainrunner.sol",
  "abi": [
    {
      "inputs": [],
      "stateMutability": "nonpayable",
      "type": "constructor"
    },
    {
      "stateMutability": "payable",
      "type": "fallback"
    },
    {
      "inputs": [
        {
          "internalType": "address[]",
          "name": "route",
          "type": "address[]"
        }
      ],
      "name": "GetMetaData",
      "outputs": [
        {
          "internalType": "bytes32[]",
          "name": "MetaData",
          "type": "bytes32[]"
        }
      ],
      "stateMutability": "view",
      "type": "function"
    },
    {
      "inputs": [
        {
          "internalType": "uint256",
          "name": "AmountIn",
          "type": "uint256"
        },
        {
          "internalType": "bytes32[]",
          "name": "MetaDataEncrypted",
          "type": "bytes32[]"
        },
        {
          "internalType": "uint8",
          "name": "Chi",
          "type": "uint8"
        },
        {
          "internalType": "uint8",
          "name": "VerifyFlag",
          "type": "uint8"
        }
      ],
      "name": "_swapSupportingFeesV4",
      "outputs": [
        {
          "internalType": "uint256",
          "name": "AmountOut",
          "type": "uint256"
        },
        {
          "internalType": "uint256",
          "name": "GasUsed",
          "type": "uint256"
        }
      ],
      "stateMutability": "payable",
      "type": "function"
    },
    {
      "inputs": [
        {
          "internalType": "uint256",
          "name": "amountIn",
          "type": "uint256"
        },
        {
          "internalType": "bytes32[]",
          "name": "MetaDataEncrypted",
          "type": "bytes32[]"
        },
        {
          "internalType": "uint8",
          "name": "VerifyFlag",
          "type": "uint8"
        }
      ],
      "name": "getAmountOutV4",
      "outputs": [
        {
          "internalType": "bytes32[]",
          "name": "Out",
          "type": "bytes32[]"
        }
      ],
      "stateMutability": "view",
      "type": "function"
    },
    {
      "inputs": [
        {
          "internalType": "address",
          "name": "_o",
          "type": "address"
        }
      ],
      "name": "setOwner",
      "outputs": [],
      "stateMutability": "nonpayable",
      "type": "function"
    },
    {
      "stateMutability": "payable",
      "type": "receive"
    }
  ],
  "bytecode": "0x608060405234801561001057600080fd5b50336000806101000a81548173ffffffffffffffffffffffffffffffffffffffff021916908373ffffffffffffffffffffffffffffffffffffffff160217905550611141806100606000396000f3fe6080604052600436106100435760003560e01c806313af40351461004c578063376ee89514610075578063a928ba1e146100a6578063e865f640146100e35761004a565b3661004a57005b005b34801561005857600080fd5b50610073600480360381019061006e9190610b41565b610120565b005b61008f600480360381019061008a9190610d6c565b6101bb565b60405161009d929190610dfe565b60405180910390f35b3480156100b257600080fd5b506100cd60048036038101906100c89190610eea565b6106af565b6040516100da9190610ff1565b60405180910390f35b3480156100ef57600080fd5b5061010a60048036038101906101059190611013565b6108a9565b6040516101179190610ff1565b60405180910390f35b60008054906101000a900473ffffffffffffffffffffffffffffffffffffffff1673ffffffffffffffffffffffffffffffffffffffff163373ffffffffffffffffffffffffffffffffffffffff161461017857600080fd5b806000806101000a81548173ffffffffffffffffffffffffffffffffffffffff021916908373ffffffffffffffffffffffffffffffffffffffff16021790555050565b60008060008054906101000a900473ffffffffffffffffffffffffffffffffffffffff1673ffffffffffffffffffffffffffffffffffffffff163373ffffffffffffffffffffffffffffffffffffffff161461021657600080fd5b60006102238787866108a9565b9050610278565b7f08c379a0000000000000000000000000000000000000000000000000000000006000527c200000000000000000000000000000000000000000000000000000000060205280604052816000fd5b604051879350602082017f636861696e72756e6e65720000000000000000000000000000000000000000006020890151036040890173ffffffffffffffffffffffffffffffffffffffff7f636861696e72756e6e6572000000000000000000000000000000000000000000825103167f23b872dd0000000000000000000000000000000000000000000000000000000085523360048601528060248601528b60448601526000806064876000875af1610330573d6000fd5b7c11696e76616c696420300000000000000000000000000000000000000060208c510260208403015b80841015610641577f0ffff0000000000000000000000000000000000000000000000000000000000084511660ec1c73ffffffffffffffffffffffffffffffffffffffff7f636861696e72756e6e65720000000000000000000000000000000000000000008651031693507f70a0823100000000000000000000000000000000000000000000000000000000885283600489015260208860248a895afa610404573d6000803e3d6000fd5b7f636861696e72756e6e6572000000000000000000000000000000000000000000602086015103955060007ff00000000000000000000000000000000000000000000000000000000000000086511614600181146104af578160208901518a5103029b506127106020890151028c0188518d02049b507f022c0d9f0000000000000000000000000000000000000000000000000000000089528b60048a0152600060248a01526104fb565b8188518a5103029b506127108851028c0160208901518d02049b507f022c0d9f000000000000000000000000000000000000000000000000000000008952600060048a01528b60248a01525b506040820385106001811461051757600081146105aa57610615565b73ffffffffffffffffffffffffffffffffffffffff7f636861696e72756e6e65720000000000000000000000000000000000000000006040880151031660448a0152608060648a0152600060848a015260008060a48b60007f636861696e72756e6e65720000000000000000000000000000000000000000008b51035af16105a5576105a460558561022a565b5b610615565b60018d14156105e5578f8c10156105e4576105e3605a7c164d696e2072657475726e206e6f74207265616368656400000000000061022a565b5b5b3360448a0152608060648a0152600060848a015260008060a48b6000895af16106145761061360558561022a565b5b5b506040870196507301000000000000000000000000000000000000008301925050604084019350610359565b5060008b111561069c577fd8ccd0f30000000000000000000000000000000000000000000000000000000086528a600487015260008060448860006d4946c0e9f43f4dee607b0ef1fa1c5af161069b573d6000803e3d6000fd5b5b5a97505050505050505094509492505050565b6060600882516106bf91906110b1565b67ffffffffffffffff8111156106d8576106d7610bba565b5b6040519080825280602002602001820160405280156107065781602001602082028036833780820191505090505b509050604051825160208401602084016020830282015b8083101561089f5782518083528060208401527f0dfe16810000000000000000000000000000000000000000000000000000000086526001602087600489855afa141561076c57855160208401525b8060408401527f313ce567000000000000000000000000000000000000000000000000000000008652600160208760048960208801515afa14156107b257855160408401525b8060608401527fd21220a70000000000000000000000000000000000000000000000000000000086526001602087600489855afa14156107f457855160608401525b8060808401527f313ce567000000000000000000000000000000000000000000000000000000008652600160208760048960608801515afa141561083a57855160808401525b8060a48401528060c48401527f0902f1ac0000000000000000000000000000000000000000000000000000000086526001604087600489855afa141561088c57855160a4840152602086015160c48401525b610100830192505060208301925061071d565b5050505050919050565b6060825167ffffffffffffffff8111156108c6576108c5610bba565b5b6040519080825280602002602001820160405280156108f45781602001602082028036833780820191505090505b50905061094a565b7f08c379a0000000000000000000000000000000000000000000000000000000006000527c200000000000000000000000000000000000000000000000000000000060205280604052816000fd5b604051602082016040850186602087510260208303015b80831015610a85577f0ffff0000000000000000000000000000000000000000000000000000000000083511660ec1c7f0902f1ac00000000000000000000000000000000000000000000000000000000865260408660048873ffffffffffffffffffffffffffffffffffffffff7f636861696e72756e6e6572000000000000000000000000000000000000000000895103165afa610a03573d6000803e3d6000fd5b60007ff0000000000000000000000000000000000000000000000000000000000000008551161460018114610a4d5761271060208801510282850201828502885102049350610a64565b612710875102828502018285026020890151020493505b50855185526020860151602086015260408501945050604083019250610961565b506001861415610ac15787811015610ac057610abf605a7c164d696e2072657475726e206e6f7420726561636865640000000000006108fc565b5b5b808352505050509392505050565b6000604051905090565b600080fd5b600080fd5b600073ffffffffffffffffffffffffffffffffffffffff82169050919050565b6000610b0e82610ae3565b9050919050565b610b1e81610b03565b8114610b2957600080fd5b50565b600081359050610b3b81610b15565b92915050565b600060208284031215610b5757610b56610ad9565b5b6000610b6584828501610b2c565b91505092915050565b6000819050919050565b610b8181610b6e565b8114610b8c57600080fd5b50565b600081359050610b9e81610b78565b92915050565b600080fd5b6000601f19601f8301169050919050565b7f4e487b7100000000000000000000000000000000000000000000000000000000600052604160045260246000fd5b610bf282610ba9565b810181811067ffffffffffffffff82111715610c1157610c10610bba565b5b80604052505050565b6000610c24610acf565b9050610c308282610be9565b919050565b600067ffffffffffffffff821115610c5057610c4f610bba565b5b602082029050602081019050919050565b600080fd5b6000819050919050565b610c7981610c66565b8114610c8457600080fd5b50565b600081359050610c9681610c70565b92915050565b6000610caf610caa84610c35565b610c1a565b90508083825260208201905060208402830185811115610cd257610cd1610c61565b5b835b81811015610cfb5780610ce78882610c87565b845260208401935050602081019050610cd4565b5050509392505050565b600082601f830112610d1a57610d19610ba4565b5b8135610d2a848260208601610c9c565b91505092915050565b600060ff82169050919050565b610d4981610d33565b8114610d5457600080fd5b50565b600081359050610d6681610d40565b92915050565b60008060008060808587031215610d8657610d85610ad9565b5b6000610d9487828801610b8f565b945050602085013567ffffffffffffffff811115610db557610db4610ade565b5b610dc187828801610d05565b9350506040610dd287828801610d57565b9250506060610de387828801610d57565b91505092959194509250565b610df881610b6e565b82525050565b6000604082019050610e136000830185610def565b610e206020830184610def565b9392505050565b600067ffffffffffffffff821115610e4257610e41610bba565b5b602082029050602081019050919050565b6000610e66610e6184610e27565b610c1a565b90508083825260208201905060208402830185811115610e8957610e88610c61565b5b835b81811015610eb25780610e9e8882610b2c565b845260208401935050602081019050610e8b565b5050509392505050565b600082601f830112610ed157610ed0610ba4565b5b8135610ee1848260208601610e53565b91505092915050565b600060208284031215610f0057610eff610ad9565b5b600082013567ffffffffffffffff811115610f1e57610f1d610ade565b5b610f2a84828501610ebc565b91505092915050565b600081519050919050565b600082825260208201905092915050565b6000819050602082019050919050565b610f6881610c66565b82525050565b6000610f7a8383610f5f565b60208301905092915050565b6000602082019050919050565b6000610f9e82610f33565b610fa88185610f3e565b9350610fb383610f4f565b8060005b83811015610fe4578151610fcb8882610f6e565b9750610fd683610f86565b925050600181019050610fb7565b5085935050505092915050565b6000602082019050818103600083015261100b8184610f93565b905092915050565b60008060006060848603121561102c5761102b610ad9565b5b600061103a86828701610b8f565b935050602084013567ffffffffffffffff81111561105b5761105a610ade565b5b61106786828701610d05565b925050604061107886828701610d57565b9150509250925092565b7f4e487b7100000000000000000000000000000000000000000000000000000000600052601160045260246000fd5b60006110bc82610b6e565b91506110c783610b6e565b9250817fffffffffffffffffffffffffffffffffffffffffffffffffffffffffffffffff0483118215151615611100576110ff611082565b5b82820290509291505056fea26469706673582212204882539aaf58a6c7ca8308eba07079a5acad63bd0694883d596bfaa010807ca964736f6c634300080a0033",
  "linkReferences": {},
  "deployedLinkReferences": {}
}