{
  "contracts/Chainrunner.sol": {
    "Chainrunner": {
      "abi": [
        {
          "inputs": [],
          "stateMutability": "nonpayable",
          "type": "constructor"
        },
        {
          "stateMutability": "payable",
          "type": "fallback"
        },
        {
          "inputs": [
            {
              "internalType": "address[]",
              "name": "route",
              "type": "address[]"
            }
          ],
          "name": "GetMetaData",
          "outputs": [
            {
              "internalType": "bytes32[]",
              "name": "MetaData",
              "type": "bytes32[]"
            }
          ],
          "stateMutability": "view",
          "type": "function"
        },
        {
          "inputs": [
            {
              "internalType": "uint256",
              "name": "AmountIn",
              "type": "uint256"
            },
            {
              "internalType": "bytes32[]",
              "name": "MetaDataEncrypted",
              "type": "bytes32[]"
            },
            {
              "internalType": "uint8",
              "name": "Chi",
              "type": "uint8"
            },
            {
              "internalType": "uint8",
              "name": "VerifyFlag",
              "type": "uint8"
            }
          ],
          "name": "_swapSupportingFeesV4",
          "outputs": [
            {
              "internalType": "uint256",
              "name": "AmountOut",
              "type": "uint256"
            },
            {
              "internalType": "uint256",
              "name": "GasUsed",
              "type": "uint256"
            }
          ],
          "stateMutability": "payable",
          "type": "function"
        },
        {
          "inputs": [
            {
              "internalType": "uint256",
              "name": "amountIn",
              "type": "uint256"
            },
            {
              "internalType": "bytes32[]",
              "name": "MetaDataEncrypted",
              "type": "bytes32[]"
            },
            {
              "internalType": "uint8",
              "name": "VerifyFlag",
              "type": "uint8"
            }
          ],
          "name": "getAmountOutV4",
          "outputs": [
            {
              "internalType": "bytes32[]",
              "name": "Out",
              "type": "bytes32[]"
            }
          ],
          "stateMutability": "view",
          "type": "function"
        },
        {
          "inputs": [
            {
              "internalType": "address",
              "name": "_o",
              "type": "address"
            }
          ],
          "name": "setOwner",
          "outputs": [],
          "stateMutability": "nonpayable",
          "type": "function"
        },
        {
          "stateMutability": "payable",
          "type": "receive"
        }
      ],
      "evm": {
        "bytecode": {
          "linkReferences": {},
          "object": "608060405234801561001057600080fd5b50336000806101000a81548173ffffffffffffffffffffffffffffffffffffffff021916908373ffffffffffffffffffffffffffffffffffffffff160217905550611068806100606000396000f3fe6080604052600436106100435760003560e01c806313af40351461004c578063376ee89514610075578063a928ba1e146100a6578063e865f640146100e35761004a565b3661004a57005b005b34801561005857600080fd5b50610073600480360381019061006e9190610a68565b610120565b005b61008f600480360381019061008a9190610c93565b6101bb565b60405161009d929190610d25565b60405180910390f35b3480156100b257600080fd5b506100cd60048036038101906100c89190610e11565b6105f5565b6040516100da9190610f18565b60405180910390f35b3480156100ef57600080fd5b5061010a60048036038101906101059190610f3a565b6107ef565b6040516101179190610f18565b60405180910390f35b60008054906101000a900473ffffffffffffffffffffffffffffffffffffffff1673ffffffffffffffffffffffffffffffffffffffff163373ffffffffffffffffffffffffffffffffffffffff161461017857600080fd5b806000806101000a81548173ffffffffffffffffffffffffffffffffffffffff021916908373ffffffffffffffffffffffffffffffffffffffff16021790555050565b60008060008054906101000a900473ffffffffffffffffffffffffffffffffffffffff1673ffffffffffffffffffffffffffffffffffffffff163373ffffffffffffffffffffffffffffffffffffffff161461021657600080fd5b60006102238787866107ef565b9050610278565b7f08c379a0000000000000000000000000000000000000000000000000000000006000527c200000000000000000000000000000000000000000000000000000000060205280604052816000fd5b6040518793506020820160106020890151036040890173ffffffffffffffffffffffffffffffffffffffff6010825103167f23b872dd0000000000000000000000000000000000000000000000000000000085523360048601528060248601528b60448601526000806064876000875af16102f2573d6000fd5b7c11696e76616c696420300000000000000000000000000000000000000060208c510260208403015b80841015610587577f0ffff0000000000000000000000000000000000000000000000000000000000084511660ec1c73ffffffffffffffffffffffffffffffffffffffff60108651031693507f70a0823100000000000000000000000000000000000000000000000000000000885283600489015260208860248a895afa6103a7573d6000803e3d6000fd5b6010602086015103955060007ff0000000000000000000000000000000000000000000000000000000000000008651161460018114610433578160208901518a5103029b506127106020890151028c0188518d02049b507f022c0d9f0000000000000000000000000000000000000000000000000000000089528b60048a0152600060248a015261047f565b8188518a5103029b506127108851028c0160208901518d02049b507f022c0d9f000000000000000000000000000000000000000000000000000000008952600060048a01528b60248a01525b506040820385106001811461049b57600081146104f05761055b565b73ffffffffffffffffffffffffffffffffffffffff60106040880151031660448a0152608060648a0152600060848a015260008060a48b600060108b51035af16104eb576104ea60558561022a565b5b61055b565b60018d141561052b578f8c101561052a57610529605a7c164d696e2072657475726e206e6f74207265616368656400000000000061022a565b5b5b3360448a0152608060648a0152600060848a015260008060a48b6000895af161055a5761055960558561022a565b5b5b50604087019650730100000000000000000000000000000000000000830192505060408401935061031b565b5060008b11156105e2577fd8ccd0f30000000000000000000000000000000000000000000000000000000086528a600487015260008060448860006d4946c0e9f43f4dee607b0ef1fa1c5af16105e1573d6000803e3d6000fd5b5b5a97505050505050505094509492505050565b6060600882516106059190610fd8565b67ffffffffffffffff81111561061e5761061d610ae1565b5b60405190808252806020026020018201604052801561064c5781602001602082028036833780820191505090505b509050604051825160208401602084016020830282015b808310156107e55782518083528060208401527f0dfe16810000000000000000000000000000000000000000000000000000000086526001602087600489855afa14156106b257855160208401525b8060408401527f313ce567000000000000000000000000000000000000000000000000000000008652600160208760048960208801515afa14156106f857855160408401525b8060608401527fd21220a70000000000000000000000000000000000000000000000000000000086526001602087600489855afa141561073a57855160608401525b8060808401527f313ce567000000000000000000000000000000000000000000000000000000008652600160208760048960608801515afa141561078057855160808401525b8060a48401528060c48401527f0902f1ac0000000000000000000000000000000000000000000000000000000086526001604087600489855afa14156107d257855160a4840152602086015160c48401525b6101008301925050602083019250610663565b5050505050919050565b6060825167ffffffffffffffff81111561080c5761080b610ae1565b5b60405190808252806020026020018201604052801561083a5781602001602082028036833780820191505090505b509050610890565b7f08c379a0000000000000000000000000000000000000000000000000000000006000527c200000000000000000000000000000000000000000000000000000000060205280604052816000fd5b604051602082016040850186602087510260208303015b808310156109ac577f0ffff0000000000000000000000000000000000000000000000000000000000083511660ec1c7f0902f1ac00000000000000000000000000000000000000000000000000000000865260408660048873ffffffffffffffffffffffffffffffffffffffff6010895103165afa61092a573d6000803e3d6000fd5b60007ff0000000000000000000000000000000000000000000000000000000000000008551161460018114610974576127106020880151028285020182850288510204935061098b565b612710875102828502018285026020890151020493505b508551855260208601516020860152604085019450506040830192506108a7565b5060018614156109e857878110156109e7576109e6605a7c164d696e2072657475726e206e6f742072656163686564000000000000610842565b5b5b808352505050509392505050565b6000604051905090565b600080fd5b600080fd5b600073ffffffffffffffffffffffffffffffffffffffff82169050919050565b6000610a3582610a0a565b9050919050565b610a4581610a2a565b8114610a5057600080fd5b50565b600081359050610a6281610a3c565b92915050565b600060208284031215610a7e57610a7d610a00565b5b6000610a8c84828501610a53565b91505092915050565b6000819050919050565b610aa881610a95565b8114610ab357600080fd5b50565b600081359050610ac581610a9f565b92915050565b600080fd5b6000601f19601f8301169050919050565b7f4e487b7100000000000000000000000000000000000000000000000000000000600052604160045260246000fd5b610b1982610ad0565b810181811067ffffffffffffffff82111715610b3857610b37610ae1565b5b80604052505050565b6000610b4b6109f6565b9050610b578282610b10565b919050565b600067ffffffffffffffff821115610b7757610b76610ae1565b5b602082029050602081019050919050565b600080fd5b6000819050919050565b610ba081610b8d565b8114610bab57600080fd5b50565b600081359050610bbd81610b97565b92915050565b6000610bd6610bd184610b5c565b610b41565b90508083825260208201905060208402830185811115610bf957610bf8610b88565b5b835b81811015610c225780610c0e8882610bae565b845260208401935050602081019050610bfb565b5050509392505050565b600082601f830112610c4157610c40610acb565b5b8135610c51848260208601610bc3565b91505092915050565b600060ff82169050919050565b610c7081610c5a565b8114610c7b57600080fd5b50565b600081359050610c8d81610c67565b92915050565b60008060008060808587031215610cad57610cac610a00565b5b6000610cbb87828801610ab6565b945050602085013567ffffffffffffffff811115610cdc57610cdb610a05565b5b610ce887828801610c2c565b9350506040610cf987828801610c7e565b9250506060610d0a87828801610c7e565b91505092959194509250565b610d1f81610a95565b82525050565b6000604082019050610d3a6000830185610d16565b610d476020830184610d16565b9392505050565b600067ffffffffffffffff821115610d6957610d68610ae1565b5b602082029050602081019050919050565b6000610d8d610d8884610d4e565b610b41565b90508083825260208201905060208402830185811115610db057610daf610b88565b5b835b81811015610dd95780610dc58882610a53565b845260208401935050602081019050610db2565b5050509392505050565b600082601f830112610df857610df7610acb565b5b8135610e08848260208601610d7a565b91505092915050565b600060208284031215610e2757610e26610a00565b5b600082013567ffffffffffffffff811115610e4557610e44610a05565b5b610e5184828501610de3565b91505092915050565b600081519050919050565b600082825260208201905092915050565b6000819050602082019050919050565b610e8f81610b8d565b82525050565b6000610ea18383610e86565b60208301905092915050565b6000602082019050919050565b6000610ec582610e5a565b610ecf8185610e65565b9350610eda83610e76565b8060005b83811015610f0b578151610ef28882610e95565b9750610efd83610ead565b925050600181019050610ede565b5085935050505092915050565b60006020820190508181036000830152610f328184610eba565b905092915050565b600080600060608486031215610f5357610f52610a00565b5b6000610f6186828701610ab6565b935050602084013567ffffffffffffffff811115610f8257610f81610a05565b5b610f8e86828701610c2c565b9250506040610f9f86828701610c7e565b9150509250925092565b7f4e487b7100000000000000000000000000000000000000000000000000000000600052601160045260246000fd5b6000610fe382610a95565b9150610fee83610a95565b9250817fffffffffffffffffffffffffffffffffffffffffffffffffffffffffffffffff048311821515161561102757611026610fa9565b5b82820290509291505056fea26469706673582212202c8b2505defdbbc83b4f1b153fada738143057b779e54a6515979a5871d2437e64736f6c634300080a0033",
          "opcodes": "PUSH1 0x80 PUSH1 0x40 MSTORE CALLVALUE DUP1 ISZERO PUSH2 0x10 JUMPI PUSH1 0x0 DUP1 REVERT JUMPDEST POP CALLER PUSH1 0x0 DUP1 PUSH2 0x100 EXP DUP2 SLOAD DUP2 PUSH20 0xFFFFFFFFFFFFFFFFFFFFFFFFFFFFFFFFFFFFFFFF MUL NOT AND SWAP1 DUP4 PUSH20 0xFFFFFFFFFFFFFFFFFFFFFFFFFFFFFFFFFFFFFFFF AND MUL OR SWAP1 SSTORE POP PUSH2 0x1068 DUP1 PUSH2 0x60 PUSH1 0x0 CODECOPY PUSH1 0x0 RETURN INVALID PUSH1 0x80 PUSH1 0x40 MSTORE PUSH1 0x4 CALLDATASIZE LT PUSH2 0x43 JUMPI PUSH1 0x0 CALLDATALOAD PUSH1 0xE0 SHR DUP1 PUSH4 0x13AF4035 EQ PUSH2 0x4C JUMPI DUP1 PUSH4 0x376EE895 EQ PUSH2 0x75 JUMPI DUP1 PUSH4 0xA928BA1E EQ PUSH2 0xA6 JUMPI DUP1 PUSH4 0xE865F640 EQ PUSH2 0xE3 JUMPI PUSH2 0x4A JUMP JUMPDEST CALLDATASIZE PUSH2 0x4A JUMPI STOP JUMPDEST STOP JUMPDEST CALLVALUE DUP1 ISZERO PUSH2 0x58 JUMPI PUSH1 0x0 DUP1 REVERT JUMPDEST POP PUSH2 0x73 PUSH1 0x4 DUP1 CALLDATASIZE SUB DUP2 ADD SWAP1 PUSH2 0x6E SWAP2 SWAP1 PUSH2 0xA68 JUMP JUMPDEST PUSH2 0x120 JUMP JUMPDEST STOP JUMPDEST PUSH2 0x8F PUSH1 0x4 DUP1 CALLDATASIZE SUB DUP2 ADD SWAP1 PUSH2 0x8A SWAP2 SWAP1 PUSH2 0xC93 JUMP JUMPDEST PUSH2 0x1BB JUMP JUMPDEST PUSH1 0x40 MLOAD PUSH2 0x9D SWAP3 SWAP2 SWAP1 PUSH2 0xD25 JUMP JUMPDEST PUSH1 0x40 MLOAD DUP1 SWAP2 SUB SWAP1 RETURN JUMPDEST CALLVALUE DUP1 ISZERO PUSH2 0xB2 JUMPI PUSH1 0x0 DUP1 REVERT JUMPDEST POP PUSH2 0xCD PUSH1 0x4 DUP1 CALLDATASIZE SUB DUP2 ADD SWAP1 PUSH2 0xC8 SWAP2 SWAP1 PUSH2 0xE11 JUMP JUMPDEST PUSH2 0x5F5 JUMP JUMPDEST PUSH1 0x40 MLOAD PUSH2 0xDA SWAP2 SWAP1 PUSH2 0xF18 JUMP JUMPDEST PUSH1 0x40 MLOAD DUP1 SWAP2 SUB SWAP1 RETURN JUMPDEST CALLVALUE DUP1 ISZERO PUSH2 0xEF JUMPI PUSH1 0x0 DUP1 REVERT JUMPDEST POP PUSH2 0x10A PUSH1 0x4 DUP1 CALLDATASIZE SUB DUP2 ADD SWAP1 PUSH2 0x105 SWAP2 SWAP1 PUSH2 0xF3A JUMP JUMPDEST PUSH2 0x7EF JUMP JUMPDEST PUSH1 0x40 MLOAD PUSH2 0x117 SWAP2 SWAP1 PUSH2 0xF18 JUMP JUMPDEST PUSH1 0x40 MLOAD DUP1 SWAP2 SUB SWAP1 RETURN JUMPDEST PUSH1 0x0 DUP1 SLOAD SWAP1 PUSH2 0x100 EXP SWAP1 DIV PUSH20 0xFFFFFFFFFFFFFFFFFFFFFFFFFFFFFFFFFFFFFFFF AND PUSH20 0xFFFFFFFFFFFFFFFFFFFFFFFFFFFFFFFFFFFFFFFF AND CALLER PUSH20 0xFFFFFFFFFFFFFFFFFFFFFFFFFFFFFFFFFFFFFFFF AND EQ PUSH2 0x178 JUMPI PUSH1 0x0 DUP1 REVERT JUMPDEST DUP1 PUSH1 0x0 DUP1 PUSH2 0x100 EXP DUP2 SLOAD DUP2 PUSH20 0xFFFFFFFFFFFFFFFFFFFFFFFFFFFFFFFFFFFFFFFF MUL NOT AND SWAP1 DUP4 PUSH20 0xFFFFFFFFFFFFFFFFFFFFFFFFFFFFFFFFFFFFFFFF AND MUL OR SWAP1 SSTORE POP POP JUMP JUMPDEST PUSH1 0x0 DUP1 PUSH1 0x0 DUP1 SLOAD SWAP1 PUSH2 0x100 EXP SWAP1 DIV PUSH20 0xFFFFFFFFFFFFFFFFFFFFFFFFFFFFFFFFFFFFFFFF AND PUSH20 0xFFFFFFFFFFFFFFFFFFFFFFFFFFFFFFFFFFFFFFFF AND CALLER PUSH20 0xFFFFFFFFFFFFFFFFFFFFFFFFFFFFFFFFFFFFFFFF AND EQ PUSH2 0x216 JUMPI PUSH1 0x0 DUP1 REVERT JUMPDEST PUSH1 0x0 PUSH2 0x223 DUP8 DUP8 DUP7 PUSH2 0x7EF JUMP JUMPDEST SWAP1 POP PUSH2 0x278 JUMP JUMPDEST PUSH32 0x8C379A000000000000000000000000000000000000000000000000000000000 PUSH1 0x0 MSTORE PUSH29 0x2000000000000000000000000000000000000000000000000000000000 PUSH1 0x20 MSTORE DUP1 PUSH1 0x40 MSTORE DUP2 PUSH1 0x0 REVERT JUMPDEST PUSH1 0x40 MLOAD DUP8 SWAP4 POP PUSH1 0x20 DUP3 ADD PUSH1 0x10 PUSH1 0x20 DUP10 ADD MLOAD SUB PUSH1 0x40 DUP10 ADD PUSH20 0xFFFFFFFFFFFFFFFFFFFFFFFFFFFFFFFFFFFFFFFF PUSH1 0x10 DUP3 MLOAD SUB AND PUSH32 0x23B872DD00000000000000000000000000000000000000000000000000000000 DUP6 MSTORE CALLER PUSH1 0x4 DUP7 ADD MSTORE DUP1 PUSH1 0x24 DUP7 ADD MSTORE DUP12 PUSH1 0x44 DUP7 ADD MSTORE PUSH1 0x0 DUP1 PUSH1 0x64 DUP8 PUSH1 0x0 DUP8 GAS CALL PUSH2 0x2F2 JUMPI RETURNDATASIZE PUSH1 0x0 REVERT JUMPDEST PUSH29 0x11696E76616C6964203000000000000000000000000000000000000000 PUSH1 0x20 DUP13 MLOAD MUL PUSH1 0x20 DUP5 SUB ADD JUMPDEST DUP1 DUP5 LT ISZERO PUSH2 0x587 JUMPI PUSH32 0xFFFF00000000000000000000000000000000000000000000000000000000000 DUP5 MLOAD AND PUSH1 0xEC SHR PUSH20 0xFFFFFFFFFFFFFFFFFFFFFFFFFFFFFFFFFFFFFFFF PUSH1 0x10 DUP7 MLOAD SUB AND SWAP4 POP PUSH32 0x70A0823100000000000000000000000000000000000000000000000000000000 DUP9 MSTORE DUP4 PUSH1 0x4 DUP10 ADD MSTORE PUSH1 0x20 DUP9 PUSH1 0x24 DUP11 DUP10 GAS STATICCALL PUSH2 0x3A7 JUMPI RETURNDATASIZE PUSH1 0x0 DUP1 RETURNDATACOPY RETURNDATASIZE PUSH1 0x0 REVERT JUMPDEST PUSH1 0x10 PUSH1 0x20 DUP7 ADD MLOAD SUB SWAP6 POP PUSH1 0x0 PUSH32 0xF000000000000000000000000000000000000000000000000000000000000000 DUP7 MLOAD AND EQ PUSH1 0x1 DUP2 EQ PUSH2 0x433 JUMPI DUP2 PUSH1 0x20 DUP10 ADD MLOAD DUP11 MLOAD SUB MUL SWAP12 POP PUSH2 0x2710 PUSH1 0x20 DUP10 ADD MLOAD MUL DUP13 ADD DUP9 MLOAD DUP14 MUL DIV SWAP12 POP PUSH32 0x22C0D9F00000000000000000000000000000000000000000000000000000000 DUP10 MSTORE DUP12 PUSH1 0x4 DUP11 ADD MSTORE PUSH1 0x0 PUSH1 0x24 DUP11 ADD MSTORE PUSH2 0x47F JUMP JUMPDEST DUP2 DUP9 MLOAD DUP11 MLOAD SUB MUL SWAP12 POP PUSH2 0x2710 DUP9 MLOAD MUL DUP13 ADD PUSH1 0x20 DUP10 ADD MLOAD DUP14 MUL DIV SWAP12 POP PUSH32 0x22C0D9F00000000000000000000000000000000000000000000000000000000 DUP10 MSTORE PUSH1 0x0 PUSH1 0x4 DUP11 ADD MSTORE DUP12 PUSH1 0x24 DUP11 ADD MSTORE JUMPDEST POP PUSH1 0x40 DUP3 SUB DUP6 LT PUSH1 0x1 DUP2 EQ PUSH2 0x49B JUMPI PUSH1 0x0 DUP2 EQ PUSH2 0x4F0 JUMPI PUSH2 0x55B JUMP JUMPDEST PUSH20 0xFFFFFFFFFFFFFFFFFFFFFFFFFFFFFFFFFFFFFFFF PUSH1 0x10 PUSH1 0x40 DUP9 ADD MLOAD SUB AND PUSH1 0x44 DUP11 ADD MSTORE PUSH1 0x80 PUSH1 0x64 DUP11 ADD MSTORE PUSH1 0x0 PUSH1 0x84 DUP11 ADD MSTORE PUSH1 0x0 DUP1 PUSH1 0xA4 DUP12 PUSH1 0x0 PUSH1 0x10 DUP12 MLOAD SUB GAS CALL PUSH2 0x4EB JUMPI PUSH2 0x4EA PUSH1 0x55 DUP6 PUSH2 0x22A JUMP JUMPDEST JUMPDEST PUSH2 0x55B JUMP JUMPDEST PUSH1 0x1 DUP14 EQ ISZERO PUSH2 0x52B JUMPI DUP16 DUP13 LT ISZERO PUSH2 0x52A JUMPI PUSH2 0x529 PUSH1 0x5A PUSH29 0x164D696E2072657475726E206E6F742072656163686564000000000000 PUSH2 0x22A JUMP JUMPDEST JUMPDEST JUMPDEST CALLER PUSH1 0x44 DUP11 ADD MSTORE PUSH1 0x80 PUSH1 0x64 DUP11 ADD MSTORE PUSH1 0x0 PUSH1 0x84 DUP11 ADD MSTORE PUSH1 0x0 DUP1 PUSH1 0xA4 DUP12 PUSH1 0x0 DUP10 GAS CALL PUSH2 0x55A JUMPI PUSH2 0x559 PUSH1 0x55 DUP6 PUSH2 0x22A JUMP JUMPDEST JUMPDEST JUMPDEST POP PUSH1 0x40 DUP8 ADD SWAP7 POP PUSH20 0x100000000000000000000000000000000000000 DUP4 ADD SWAP3 POP POP PUSH1 0x40 DUP5 ADD SWAP4 POP PUSH2 0x31B JUMP JUMPDEST POP PUSH1 0x0 DUP12 GT ISZERO PUSH2 0x5E2 JUMPI PUSH32 0xD8CCD0F300000000000000000000000000000000000000000000000000000000 DUP7 MSTORE DUP11 PUSH1 0x4 DUP8 ADD MSTORE PUSH1 0x0 DUP1 PUSH1 0x44 DUP9 PUSH1 0x0 PUSH14 0x4946C0E9F43F4DEE607B0EF1FA1C GAS CALL PUSH2 0x5E1 JUMPI RETURNDATASIZE PUSH1 0x0 DUP1 RETURNDATACOPY RETURNDATASIZE PUSH1 0x0 REVERT JUMPDEST JUMPDEST GAS SWAP8 POP POP POP POP POP POP POP POP SWAP5 POP SWAP5 SWAP3 POP POP POP JUMP JUMPDEST PUSH1 0x60 PUSH1 0x8 DUP3 MLOAD PUSH2 0x605 SWAP2 SWAP1 PUSH2 0xFD8 JUMP JUMPDEST PUSH8 0xFFFFFFFFFFFFFFFF DUP2 GT ISZERO PUSH2 0x61E JUMPI PUSH2 0x61D PUSH2 0xAE1 JUMP JUMPDEST JUMPDEST PUSH1 0x40 MLOAD SWAP1 DUP1 DUP3 MSTORE DUP1 PUSH1 0x20 MUL PUSH1 0x20 ADD DUP3 ADD PUSH1 0x40 MSTORE DUP1 ISZERO PUSH2 0x64C JUMPI DUP2 PUSH1 0x20 ADD PUSH1 0x20 DUP3 MUL DUP1 CALLDATASIZE DUP4 CALLDATACOPY DUP1 DUP3 ADD SWAP2 POP POP SWAP1 POP JUMPDEST POP SWAP1 POP PUSH1 0x40 MLOAD DUP3 MLOAD PUSH1 0x20 DUP5 ADD PUSH1 0x20 DUP5 ADD PUSH1 0x20 DUP4 MUL DUP3 ADD JUMPDEST DUP1 DUP4 LT ISZERO PUSH2 0x7E5 JUMPI DUP3 MLOAD DUP1 DUP4 MSTORE DUP1 PUSH1 0x20 DUP5 ADD MSTORE PUSH32 0xDFE168100000000000000000000000000000000000000000000000000000000 DUP7 MSTORE PUSH1 0x1 PUSH1 0x20 DUP8 PUSH1 0x4 DUP10 DUP6 GAS STATICCALL EQ ISZERO PUSH2 0x6B2 JUMPI DUP6 MLOAD PUSH1 0x20 DUP5 ADD MSTORE JUMPDEST DUP1 PUSH1 0x40 DUP5 ADD MSTORE PUSH32 0x313CE56700000000000000000000000000000000000000000000000000000000 DUP7 MSTORE PUSH1 0x1 PUSH1 0x20 DUP8 PUSH1 0x4 DUP10 PUSH1 0x20 DUP9 ADD MLOAD GAS STATICCALL EQ ISZERO PUSH2 0x6F8 JUMPI DUP6 MLOAD PUSH1 0x40 DUP5 ADD MSTORE JUMPDEST DUP1 PUSH1 0x60 DUP5 ADD MSTORE PUSH32 0xD21220A700000000000000000000000000000000000000000000000000000000 DUP7 MSTORE PUSH1 0x1 PUSH1 0x20 DUP8 PUSH1 0x4 DUP10 DUP6 GAS STATICCALL EQ ISZERO PUSH2 0x73A JUMPI DUP6 MLOAD PUSH1 0x60 DUP5 ADD MSTORE JUMPDEST DUP1 PUSH1 0x80 DUP5 ADD MSTORE PUSH32 0x313CE56700000000000000000000000000000000000000000000000000000000 DUP7 MSTORE PUSH1 0x1 PUSH1 0x20 DUP8 PUSH1 0x4 DUP10 PUSH1 0x60 DUP9 ADD MLOAD GAS STATICCALL EQ ISZERO PUSH2 0x780 JUMPI DUP6 MLOAD PUSH1 0x80 DUP5 ADD MSTORE JUMPDEST DUP1 PUSH1 0xA4 DUP5 ADD MSTORE DUP1 PUSH1 0xC4 DUP5 ADD MSTORE PUSH32 0x902F1AC00000000000000000000000000000000000000000000000000000000 DUP7 MSTORE PUSH1 0x1 PUSH1 0x40 DUP8 PUSH1 0x4 DUP10 DUP6 GAS STATICCALL EQ ISZERO PUSH2 0x7D2 JUMPI DUP6 MLOAD PUSH1 0xA4 DUP5 ADD MSTORE PUSH1 0x20 DUP7 ADD MLOAD PUSH1 0xC4 DUP5 ADD MSTORE JUMPDEST PUSH2 0x100 DUP4 ADD SWAP3 POP POP PUSH1 0x20 DUP4 ADD SWAP3 POP PUSH2 0x663 JUMP JUMPDEST POP POP POP POP POP SWAP2 SWAP1 POP JUMP JUMPDEST PUSH1 0x60 DUP3 MLOAD PUSH8 0xFFFFFFFFFFFFFFFF DUP2 GT ISZERO PUSH2 0x80C JUMPI PUSH2 0x80B PUSH2 0xAE1 JUMP JUMPDEST JUMPDEST PUSH1 0x40 MLOAD SWAP1 DUP1 DUP3 MSTORE DUP1 PUSH1 0x20 MUL PUSH1 0x20 ADD DUP3 ADD PUSH1 0x40 MSTORE DUP1 ISZERO PUSH2 0x83A JUMPI DUP2 PUSH1 0x20 ADD PUSH1 0x20 DUP3 MUL DUP1 CALLDATASIZE DUP4 CALLDATACOPY DUP1 DUP3 ADD SWAP2 POP POP SWAP1 POP JUMPDEST POP SWAP1 POP PUSH2 0x890 JUMP JUMPDEST PUSH32 0x8C379A000000000000000000000000000000000000000000000000000000000 PUSH1 0x0 MSTORE PUSH29 0x2000000000000000000000000000000000000000000000000000000000 PUSH1 0x20 MSTORE DUP1 PUSH1 0x40 MSTORE DUP2 PUSH1 0x0 REVERT JUMPDEST PUSH1 0x40 MLOAD PUSH1 0x20 DUP3 ADD PUSH1 0x40 DUP6 ADD DUP7 PUSH1 0x20 DUP8 MLOAD MUL PUSH1 0x20 DUP4 SUB ADD JUMPDEST DUP1 DUP4 LT ISZERO PUSH2 0x9AC JUMPI PUSH32 0xFFFF00000000000000000000000000000000000000000000000000000000000 DUP4 MLOAD AND PUSH1 0xEC SHR PUSH32 0x902F1AC00000000000000000000000000000000000000000000000000000000 DUP7 MSTORE PUSH1 0x40 DUP7 PUSH1 0x4 DUP9 PUSH20 0xFFFFFFFFFFFFFFFFFFFFFFFFFFFFFFFFFFFFFFFF PUSH1 0x10 DUP10 MLOAD SUB AND GAS STATICCALL PUSH2 0x92A JUMPI RETURNDATASIZE PUSH1 0x0 DUP1 RETURNDATACOPY RETURNDATASIZE PUSH1 0x0 REVERT JUMPDEST PUSH1 0x0 PUSH32 0xF000000000000000000000000000000000000000000000000000000000000000 DUP6 MLOAD AND EQ PUSH1 0x1 DUP2 EQ PUSH2 0x974 JUMPI PUSH2 0x2710 PUSH1 0x20 DUP9 ADD MLOAD MUL DUP3 DUP6 MUL ADD DUP3 DUP6 MUL DUP9 MLOAD MUL DIV SWAP4 POP PUSH2 0x98B JUMP JUMPDEST PUSH2 0x2710 DUP8 MLOAD MUL DUP3 DUP6 MUL ADD DUP3 DUP6 MUL PUSH1 0x20 DUP10 ADD MLOAD MUL DIV SWAP4 POP JUMPDEST POP DUP6 MLOAD DUP6 MSTORE PUSH1 0x20 DUP7 ADD MLOAD PUSH1 0x20 DUP7 ADD MSTORE PUSH1 0x40 DUP6 ADD SWAP5 POP POP PUSH1 0x40 DUP4 ADD SWAP3 POP PUSH2 0x8A7 JUMP JUMPDEST POP PUSH1 0x1 DUP7 EQ ISZERO PUSH2 0x9E8 JUMPI DUP8 DUP2 LT ISZERO PUSH2 0x9E7 JUMPI PUSH2 0x9E6 PUSH1 0x5A PUSH29 0x164D696E2072657475726E206E6F742072656163686564000000000000 PUSH2 0x842 JUMP JUMPDEST JUMPDEST JUMPDEST DUP1 DUP4 MSTORE POP POP POP POP SWAP4 SWAP3 POP POP POP JUMP JUMPDEST PUSH1 0x0 PUSH1 0x40 MLOAD SWAP1 POP SWAP1 JUMP JUMPDEST PUSH1 0x0 DUP1 REVERT JUMPDEST PUSH1 0x0 DUP1 REVERT JUMPDEST PUSH1 0x0 PUSH20 0xFFFFFFFFFFFFFFFFFFFFFFFFFFFFFFFFFFFFFFFF DUP3 AND SWAP1 POP SWAP2 SWAP1 POP JUMP JUMPDEST PUSH1 0x0 PUSH2 0xA35 DUP3 PUSH2 0xA0A JUMP JUMPDEST SWAP1 POP SWAP2 SWAP1 POP JUMP JUMPDEST PUSH2 0xA45 DUP2 PUSH2 0xA2A JUMP JUMPDEST DUP2 EQ PUSH2 0xA50 JUMPI PUSH1 0x0 DUP1 REVERT JUMPDEST POP JUMP JUMPDEST PUSH1 0x0 DUP2 CALLDATALOAD SWAP1 POP PUSH2 0xA62 DUP2 PUSH2 0xA3C JUMP JUMPDEST SWAP3 SWAP2 POP POP JUMP JUMPDEST PUSH1 0x0 PUSH1 0x20 DUP3 DUP5 SUB SLT ISZERO PUSH2 0xA7E JUMPI PUSH2 0xA7D PUSH2 0xA00 JUMP JUMPDEST JUMPDEST PUSH1 0x0 PUSH2 0xA8C DUP5 DUP3 DUP6 ADD PUSH2 0xA53 JUMP JUMPDEST SWAP2 POP POP SWAP3 SWAP2 POP POP JUMP JUMPDEST PUSH1 0x0 DUP2 SWAP1 POP SWAP2 SWAP1 POP JUMP JUMPDEST PUSH2 0xAA8 DUP2 PUSH2 0xA95 JUMP JUMPDEST DUP2 EQ PUSH2 0xAB3 JUMPI PUSH1 0x0 DUP1 REVERT JUMPDEST POP JUMP JUMPDEST PUSH1 0x0 DUP2 CALLDATALOAD SWAP1 POP PUSH2 0xAC5 DUP2 PUSH2 0xA9F JUMP JUMPDEST SWAP3 SWAP2 POP POP JUMP JUMPDEST PUSH1 0x0 DUP1 REVERT JUMPDEST PUSH1 0x0 PUSH1 0x1F NOT PUSH1 0x1F DUP4 ADD AND SWAP1 POP SWAP2 SWAP1 POP JUMP JUMPDEST PUSH32 0x4E487B7100000000000000000000000000000000000000000000000000000000 PUSH1 0x0 MSTORE PUSH1 0x41 PUSH1 0x4 MSTORE PUSH1 0x24 PUSH1 0x0 REVERT JUMPDEST PUSH2 0xB19 DUP3 PUSH2 0xAD0 JUMP JUMPDEST DUP2 ADD DUP2 DUP2 LT PUSH8 0xFFFFFFFFFFFFFFFF DUP3 GT OR ISZERO PUSH2 0xB38 JUMPI PUSH2 0xB37 PUSH2 0xAE1 JUMP JUMPDEST JUMPDEST DUP1 PUSH1 0x40 MSTORE POP POP POP JUMP JUMPDEST PUSH1 0x0 PUSH2 0xB4B PUSH2 0x9F6 JUMP JUMPDEST SWAP1 POP PUSH2 0xB57 DUP3 DUP3 PUSH2 0xB10 JUMP JUMPDEST SWAP2 SWAP1 POP JUMP JUMPDEST PUSH1 0x0 PUSH8 0xFFFFFFFFFFFFFFFF DUP3 GT ISZERO PUSH2 0xB77 JUMPI PUSH2 0xB76 PUSH2 0xAE1 JUMP JUMPDEST JUMPDEST PUSH1 0x20 DUP3 MUL SWAP1 POP PUSH1 0x20 DUP2 ADD SWAP1 POP SWAP2 SWAP1 POP JUMP JUMPDEST PUSH1 0x0 DUP1 REVERT JUMPDEST PUSH1 0x0 DUP2 SWAP1 POP SWAP2 SWAP1 POP JUMP JUMPDEST PUSH2 0xBA0 DUP2 PUSH2 0xB8D JUMP JUMPDEST DUP2 EQ PUSH2 0xBAB JUMPI PUSH1 0x0 DUP1 REVERT JUMPDEST POP JUMP JUMPDEST PUSH1 0x0 DUP2 CALLDATALOAD SWAP1 POP PUSH2 0xBBD DUP2 PUSH2 0xB97 JUMP JUMPDEST SWAP3 SWAP2 POP POP JUMP JUMPDEST PUSH1 0x0 PUSH2 0xBD6 PUSH2 0xBD1 DUP5 PUSH2 0xB5C JUMP JUMPDEST PUSH2 0xB41 JUMP JUMPDEST SWAP1 POP DUP1 DUP4 DUP3 MSTORE PUSH1 0x20 DUP3 ADD SWAP1 POP PUSH1 0x20 DUP5 MUL DUP4 ADD DUP6 DUP2 GT ISZERO PUSH2 0xBF9 JUMPI PUSH2 0xBF8 PUSH2 0xB88 JUMP JUMPDEST JUMPDEST DUP4 JUMPDEST DUP2 DUP2 LT ISZERO PUSH2 0xC22 JUMPI DUP1 PUSH2 0xC0E DUP9 DUP3 PUSH2 0xBAE JUMP JUMPDEST DUP5 MSTORE PUSH1 0x20 DUP5 ADD SWAP4 POP POP PUSH1 0x20 DUP2 ADD SWAP1 POP PUSH2 0xBFB JUMP JUMPDEST POP POP POP SWAP4 SWAP3 POP POP POP JUMP JUMPDEST PUSH1 0x0 DUP3 PUSH1 0x1F DUP4 ADD SLT PUSH2 0xC41 JUMPI PUSH2 0xC40 PUSH2 0xACB JUMP JUMPDEST JUMPDEST DUP2 CALLDATALOAD PUSH2 0xC51 DUP5 DUP3 PUSH1 0x20 DUP7 ADD PUSH2 0xBC3 JUMP JUMPDEST SWAP2 POP POP SWAP3 SWAP2 POP POP JUMP JUMPDEST PUSH1 0x0 PUSH1 0xFF DUP3 AND SWAP1 POP SWAP2 SWAP1 POP JUMP JUMPDEST PUSH2 0xC70 DUP2 PUSH2 0xC5A JUMP JUMPDEST DUP2 EQ PUSH2 0xC7B JUMPI PUSH1 0x0 DUP1 REVERT JUMPDEST POP JUMP JUMPDEST PUSH1 0x0 DUP2 CALLDATALOAD SWAP1 POP PUSH2 0xC8D DUP2 PUSH2 0xC67 JUMP JUMPDEST SWAP3 SWAP2 POP POP JUMP JUMPDEST PUSH1 0x0 DUP1 PUSH1 0x0 DUP1 PUSH1 0x80 DUP6 DUP8 SUB SLT ISZERO PUSH2 0xCAD JUMPI PUSH2 0xCAC PUSH2 0xA00 JUMP JUMPDEST JUMPDEST PUSH1 0x0 PUSH2 0xCBB DUP8 DUP3 DUP9 ADD PUSH2 0xAB6 JUMP JUMPDEST SWAP5 POP POP PUSH1 0x20 DUP6 ADD CALLDATALOAD PUSH8 0xFFFFFFFFFFFFFFFF DUP2 GT ISZERO PUSH2 0xCDC JUMPI PUSH2 0xCDB PUSH2 0xA05 JUMP JUMPDEST JUMPDEST PUSH2 0xCE8 DUP8 DUP3 DUP9 ADD PUSH2 0xC2C JUMP JUMPDEST SWAP4 POP POP PUSH1 0x40 PUSH2 0xCF9 DUP8 DUP3 DUP9 ADD PUSH2 0xC7E JUMP JUMPDEST SWAP3 POP POP PUSH1 0x60 PUSH2 0xD0A DUP8 DUP3 DUP9 ADD PUSH2 0xC7E JUMP JUMPDEST SWAP2 POP POP SWAP3 SWAP6 SWAP2 SWAP5 POP SWAP3 POP JUMP JUMPDEST PUSH2 0xD1F DUP2 PUSH2 0xA95 JUMP JUMPDEST DUP3 MSTORE POP POP JUMP JUMPDEST PUSH1 0x0 PUSH1 0x40 DUP3 ADD SWAP1 POP PUSH2 0xD3A PUSH1 0x0 DUP4 ADD DUP6 PUSH2 0xD16 JUMP JUMPDEST PUSH2 0xD47 PUSH1 0x20 DUP4 ADD DUP5 PUSH2 0xD16 JUMP JUMPDEST SWAP4 SWAP3 POP POP POP JUMP JUMPDEST PUSH1 0x0 PUSH8 0xFFFFFFFFFFFFFFFF DUP3 GT ISZERO PUSH2 0xD69 JUMPI PUSH2 0xD68 PUSH2 0xAE1 JUMP JUMPDEST JUMPDEST PUSH1 0x20 DUP3 MUL SWAP1 POP PUSH1 0x20 DUP2 ADD SWAP1 POP SWAP2 SWAP1 POP JUMP JUMPDEST PUSH1 0x0 PUSH2 0xD8D PUSH2 0xD88 DUP5 PUSH2 0xD4E JUMP JUMPDEST PUSH2 0xB41 JUMP JUMPDEST SWAP1 POP DUP1 DUP4 DUP3 MSTORE PUSH1 0x20 DUP3 ADD SWAP1 POP PUSH1 0x20 DUP5 MUL DUP4 ADD DUP6 DUP2 GT ISZERO PUSH2 0xDB0 JUMPI PUSH2 0xDAF PUSH2 0xB88 JUMP JUMPDEST JUMPDEST DUP4 JUMPDEST DUP2 DUP2 LT ISZERO PUSH2 0xDD9 JUMPI DUP1 PUSH2 0xDC5 DUP9 DUP3 PUSH2 0xA53 JUMP JUMPDEST DUP5 MSTORE PUSH1 0x20 DUP5 ADD SWAP4 POP POP PUSH1 0x20 DUP2 ADD SWAP1 POP PUSH2 0xDB2 JUMP JUMPDEST POP POP POP SWAP4 SWAP3 POP POP POP JUMP JUMPDEST PUSH1 0x0 DUP3 PUSH1 0x1F DUP4 ADD SLT PUSH2 0xDF8 JUMPI PUSH2 0xDF7 PUSH2 0xACB JUMP JUMPDEST JUMPDEST DUP2 CALLDATALOAD PUSH2 0xE08 DUP5 DUP3 PUSH1 0x20 DUP7 ADD PUSH2 0xD7A JUMP JUMPDEST SWAP2 POP POP SWAP3 SWAP2 POP POP JUMP JUMPDEST PUSH1 0x0 PUSH1 0x20 DUP3 DUP5 SUB SLT ISZERO PUSH2 0xE27 JUMPI PUSH2 0xE26 PUSH2 0xA00 JUMP JUMPDEST JUMPDEST PUSH1 0x0 DUP3 ADD CALLDATALOAD PUSH8 0xFFFFFFFFFFFFFFFF DUP2 GT ISZERO PUSH2 0xE45 JUMPI PUSH2 0xE44 PUSH2 0xA05 JUMP JUMPDEST JUMPDEST PUSH2 0xE51 DUP5 DUP3 DUP6 ADD PUSH2 0xDE3 JUMP JUMPDEST SWAP2 POP POP SWAP3 SWAP2 POP POP JUMP JUMPDEST PUSH1 0x0 DUP2 MLOAD SWAP1 POP SWAP2 SWAP1 POP JUMP JUMPDEST PUSH1 0x0 DUP3 DUP3 MSTORE PUSH1 0x20 DUP3 ADD SWAP1 POP SWAP3 SWAP2 POP POP JUMP JUMPDEST PUSH1 0x0 DUP2 SWAP1 POP PUSH1 0x20 DUP3 ADD SWAP1 POP SWAP2 SWAP1 POP JUMP JUMPDEST PUSH2 0xE8F DUP2 PUSH2 0xB8D JUMP JUMPDEST DUP3 MSTORE POP POP JUMP JUMPDEST PUSH1 0x0 PUSH2 0xEA1 DUP4 DUP4 PUSH2 0xE86 JUMP JUMPDEST PUSH1 0x20 DUP4 ADD SWAP1 POP SWAP3 SWAP2 POP POP JUMP JUMPDEST PUSH1 0x0 PUSH1 0x20 DUP3 ADD SWAP1 POP SWAP2 SWAP1 POP JUMP JUMPDEST PUSH1 0x0 PUSH2 0xEC5 DUP3 PUSH2 0xE5A JUMP JUMPDEST PUSH2 0xECF DUP2 DUP6 PUSH2 0xE65 JUMP JUMPDEST SWAP4 POP PUSH2 0xEDA DUP4 PUSH2 0xE76 JUMP JUMPDEST DUP1 PUSH1 0x0 JUMPDEST DUP4 DUP2 LT ISZERO PUSH2 0xF0B JUMPI DUP2 MLOAD PUSH2 0xEF2 DUP9 DUP3 PUSH2 0xE95 JUMP JUMPDEST SWAP8 POP PUSH2 0xEFD DUP4 PUSH2 0xEAD JUMP JUMPDEST SWAP3 POP POP PUSH1 0x1 DUP2 ADD SWAP1 POP PUSH2 0xEDE JUMP JUMPDEST POP DUP6 SWAP4 POP POP POP POP SWAP3 SWAP2 POP POP JUMP JUMPDEST PUSH1 0x0 PUSH1 0x20 DUP3 ADD SWAP1 POP DUP2 DUP2 SUB PUSH1 0x0 DUP4 ADD MSTORE PUSH2 0xF32 DUP2 DUP5 PUSH2 0xEBA JUMP JUMPDEST SWAP1 POP SWAP3 SWAP2 POP POP JUMP JUMPDEST PUSH1 0x0 DUP1 PUSH1 0x0 PUSH1 0x60 DUP5 DUP7 SUB SLT ISZERO PUSH2 0xF53 JUMPI PUSH2 0xF52 PUSH2 0xA00 JUMP JUMPDEST JUMPDEST PUSH1 0x0 PUSH2 0xF61 DUP7 DUP3 DUP8 ADD PUSH2 0xAB6 JUMP JUMPDEST SWAP4 POP POP PUSH1 0x20 DUP5 ADD CALLDATALOAD PUSH8 0xFFFFFFFFFFFFFFFF DUP2 GT ISZERO PUSH2 0xF82 JUMPI PUSH2 0xF81 PUSH2 0xA05 JUMP JUMPDEST JUMPDEST PUSH2 0xF8E DUP7 DUP3 DUP8 ADD PUSH2 0xC2C JUMP JUMPDEST SWAP3 POP POP PUSH1 0x40 PUSH2 0xF9F DUP7 DUP3 DUP8 ADD PUSH2 0xC7E JUMP JUMPDEST SWAP2 POP POP SWAP3 POP SWAP3 POP SWAP3 JUMP JUMPDEST PUSH32 0x4E487B7100000000000000000000000000000000000000000000000000000000 PUSH1 0x0 MSTORE PUSH1 0x11 PUSH1 0x4 MSTORE PUSH1 0x24 PUSH1 0x0 REVERT JUMPDEST PUSH1 0x0 PUSH2 0xFE3 DUP3 PUSH2 0xA95 JUMP JUMPDEST SWAP2 POP PUSH2 0xFEE DUP4 PUSH2 0xA95 JUMP JUMPDEST SWAP3 POP DUP2 PUSH32 0xFFFFFFFFFFFFFFFFFFFFFFFFFFFFFFFFFFFFFFFFFFFFFFFFFFFFFFFFFFFFFFFF DIV DUP4 GT DUP3 ISZERO ISZERO AND ISZERO PUSH2 0x1027 JUMPI PUSH2 0x1026 PUSH2 0xFA9 JUMP JUMPDEST JUMPDEST DUP3 DUP3 MUL SWAP1 POP SWAP3 SWAP2 POP POP JUMP INVALID LOG2 PUSH5 0x6970667358 0x22 SLT KECCAK256 0x2C DUP12 0x25 SDIV 0xDE REVERT 0xBB 0xC8 EXTCODESIZE 0x4F SHL ISZERO EXTCODEHASH 0xAD 0xA7 CODESIZE EQ ADDRESS JUMPI 0xB7 PUSH26 0xE54A6515979A5871D2437E64736F6C634300080A003300000000 "
        },
        "methodIdentifiers": {
          "GetMetaData(address[])": "a928ba1e",
          "_swapSupportingFeesV4(uint256,bytes32[],uint8,uint8)": "376ee895",
          "getAmountOutV4(uint256,bytes32[],uint8)": "e865f640",
          "setOwner(address)": "13af4035"
        }
      }
    }
  }
}