{
  "contracts/Chainrunner.sol": {
    "Chainrunner": {
      "abi": [
        {
          "inputs": [],
          "stateMutability": "nonpayable",
          "type": "constructor"
        },
        {
          "stateMutability": "payable",
          "type": "fallback"
        },
        {
          "inputs": [
            {
              "internalType": "address[]",
              "name": "route",
              "type": "address[]"
            }
          ],
          "name": "GetMetaData",
          "outputs": [
            {
              "internalType": "bytes32[]",
              "name": "MetaData",
              "type": "bytes32[]"
            }
          ],
          "stateMutability": "view",
          "type": "function"
        },
        {
          "inputs": [
            {
              "internalType": "uint256",
              "name": "AmountIn",
              "type": "uint256"
            },
            {
              "internalType": "bytes32[]",
              "name": "MetaDataEncrypted",
              "type": "bytes32[]"
            },
            {
              "internalType": "uint8",
              "name": "Chi",
              "type": "uint8"
            },
            {
              "internalType": "uint8",
              "name": "VerifyFlag",
              "type": "uint8"
            }
          ],
          "name": "_swapSupportingFeesV4",
          "outputs": [
            {
              "internalType": "uint256",
              "name": "AmountOut",
              "type": "uint256"
            },
            {
              "internalType": "uint256",
              "name": "GasUsed",
              "type": "uint256"
            }
          ],
          "stateMutability": "payable",
          "type": "function"
        },
        {
          "inputs": [
            {
              "internalType": "uint256",
              "name": "amountIn",
              "type": "uint256"
            },
            {
              "internalType": "bytes32[]",
              "name": "MetaDataEncrypted",
              "type": "bytes32[]"
            },
            {
              "internalType": "uint8",
              "name": "VerifyFlag",
              "type": "uint8"
            }
          ],
          "name": "getAmountOutV4",
          "outputs": [
            {
              "internalType": "bytes32[]",
              "name": "Out",
              "type": "bytes32[]"
            }
          ],
          "stateMutability": "view",
          "type": "function"
        },
        {
          "inputs": [
            {
              "internalType": "bytes",
              "name": "payouts",
              "type": "bytes"
            }
          ],
          "name": "payout",
          "outputs": [],
          "stateMutability": "nonpayable",
          "type": "function"
        },
        {
          "inputs": [
            {
              "internalType": "address",
              "name": "_o",
              "type": "address"
            }
          ],
          "name": "setOwner",
          "outputs": [],
          "stateMutability": "nonpayable",
          "type": "function"
        },
        {
          "stateMutability": "payable",
          "type": "receive"
        }
      ],
      "evm": {
        "bytecode": {
          "linkReferences": {},
          "object": "608060405234801561001057600080fd5b50336000806101000a81548173ffffffffffffffffffffffffffffffffffffffff021916908373ffffffffffffffffffffffffffffffffffffffff160217905550611613806100606000396000f3fe60806040526004361061004e5760003560e01c806313af403514610057578063253227f114610080578063376ee895146100a9578063a928ba1e146100da578063e865f6401461011757610055565b3661005557005b005b34801561006357600080fd5b5061007e60048036038101906100799190610d9b565b610154565b005b34801561008c57600080fd5b506100a760048036038101906100a29190610e2d565b6101ef565b005b6100c360048036038101906100be919061106e565b6102ff565b6040516100d1929190611100565b60405180910390f35b3480156100e657600080fd5b5061010160048036038101906100fc91906111ec565b610739565b60405161010e91906112f3565b60405180910390f35b34801561012357600080fd5b5061013e60048036038101906101399190611315565b610933565b60405161014b91906112f3565b60405180910390f35b60008054906101000a900473ffffffffffffffffffffffffffffffffffffffff1673ffffffffffffffffffffffffffffffffffffffff163373ffffffffffffffffffffffffffffffffffffffff16146101ac57600080fd5b806000806101000a81548173ffffffffffffffffffffffffffffffffffffffff021916908373ffffffffffffffffffffffffffffffffffffffff16021790555050565b60008054906101000a900473ffffffffffffffffffffffffffffffffffffffff1673ffffffffffffffffffffffffffffffffffffffff163373ffffffffffffffffffffffffffffffffffffffff161461027d576040517f08c379a0000000000000000000000000000000000000000000000000000000008152600401610274906113e1565b60405180910390fd5b610294828281019061028f91906111ec565b610b3a565b60008054906101000a900473ffffffffffffffffffffffffffffffffffffffff1673ffffffffffffffffffffffffffffffffffffffff166108fc479081150290604051600060405180830381858888f193505050501580156102fa573d6000803e3d6000fd5b505050565b60008060008054906101000a900473ffffffffffffffffffffffffffffffffffffffff1673ffffffffffffffffffffffffffffffffffffffff163373ffffffffffffffffffffffffffffffffffffffff161461035a57600080fd5b6000610367878786610933565b90506103bc565b7f08c379a0000000000000000000000000000000000000000000000000000000006000527c200000000000000000000000000000000000000000000000000000000060205280604052816000fd5b6040518793506020820160106020890151036040890173ffffffffffffffffffffffffffffffffffffffff6010825103167f23b872dd0000000000000000000000000000000000000000000000000000000085523360048601528060248601528b60448601526000806064876000875af1610436573d6000fd5b7c11696e76616c696420300000000000000000000000000000000000000060208c510260208403015b808410156106cb577f0ffff0000000000000000000000000000000000000000000000000000000000084511660ec1c73ffffffffffffffffffffffffffffffffffffffff60108651031693507f70a0823100000000000000000000000000000000000000000000000000000000885283600489015260208860248a895afa6104eb573d6000803e3d6000fd5b6010602086015103955060007ff0000000000000000000000000000000000000000000000000000000000000008651161460018114610577578160208901518a5103029b506127106020890151028c0188518d02049b507f022c0d9f0000000000000000000000000000000000000000000000000000000089528b60048a0152600060248a01526105c3565b8188518a5103029b506127108851028c0160208901518d02049b507f022c0d9f000000000000000000000000000000000000000000000000000000008952600060048a01528b60248a01525b50604082038510600181146105df57600081146106345761069f565b73ffffffffffffffffffffffffffffffffffffffff60106040880151031660448a0152608060648a0152600060848a015260008060a48b600060108b51035af161062f5761062e60558561036e565b5b61069f565b60018d141561066f578f8c101561066e5761066d605a7c164d696e2072657475726e206e6f74207265616368656400000000000061036e565b5b5b3360448a0152608060648a0152600060848a015260008060a48b6000895af161069e5761069d60558561036e565b5b5b50604087019650730100000000000000000000000000000000000000830192505060408401935061045f565b5060008b1115610726577fd8ccd0f30000000000000000000000000000000000000000000000000000000086528a600487015260008060448860006d4946c0e9f43f4dee607b0ef1fa1c5af1610725573d6000803e3d6000fd5b5b5a97505050505050505094509492505050565b6060600882516107499190611430565b67ffffffffffffffff81111561076257610761610ec1565b5b6040519080825280602002602001820160405280156107905781602001602082028036833780820191505090505b509050604051825160208401602084016020830282015b808310156109295782518083528060208401527f0dfe16810000000000000000000000000000000000000000000000000000000086526001602087600489855afa14156107f657855160208401525b8060408401527f313ce567000000000000000000000000000000000000000000000000000000008652600160208760048960208801515afa141561083c57855160408401525b8060608401527fd21220a70000000000000000000000000000000000000000000000000000000086526001602087600489855afa141561087e57855160608401525b8060808401527f313ce567000000000000000000000000000000000000000000000000000000008652600160208760048960608801515afa14156108c457855160808401525b8060a48401528060c48401527f0902f1ac0000000000000000000000000000000000000000000000000000000086526001604087600489855afa141561091657855160a4840152602086015160c48401525b61010083019250506020830192506107a7565b5050505050919050565b6060825167ffffffffffffffff8111156109505761094f610ec1565b5b60405190808252806020026020018201604052801561097e5781602001602082028036833780820191505090505b5090506109d4565b7f08c379a0000000000000000000000000000000000000000000000000000000006000527c200000000000000000000000000000000000000000000000000000000060205280604052816000fd5b604051602082016040850186602087510260208303015b80831015610af0577f0ffff0000000000000000000000000000000000000000000000000000000000083511660ec1c7f0902f1ac00000000000000000000000000000000000000000000000000000000865260408660048873ffffffffffffffffffffffffffffffffffffffff6010895103165afa610a6e573d6000803e3d6000fd5b60007ff0000000000000000000000000000000000000000000000000000000000000008551161460018114610ab85761271060208801510282850201828502885102049350610acf565b612710875102828502018285026020890151020493505b508551855260208601516020860152604085019450506040830192506109eb565b506001861415610b2c5787811015610b2b57610b2a605a7c164d696e2072657475726e206e6f742072656163686564000000000000610986565b5b5b808352505050509392505050565b60005b81518160ff161015610d25576001151560016000848460ff1681518110610b6757610b6661148a565b5b602002602001015173ffffffffffffffffffffffffffffffffffffffff1673ffffffffffffffffffffffffffffffffffffffff16815260200190815260200160002060009054906101000a900460ff1615151415610d1257818160ff1681518110610bd557610bd461148a565b5b602002602001015173ffffffffffffffffffffffffffffffffffffffff1663a9059cbb60008054906101000a900473ffffffffffffffffffffffffffffffffffffffff16848460ff1681518110610c2f57610c2e61148a565b5b602002602001015173ffffffffffffffffffffffffffffffffffffffff166370a08231306040518263ffffffff1660e01b8152600401610c6f91906114c8565b602060405180830381865afa158015610c8c573d6000803e3d6000fd5b505050506040513d601f19601f82011682018060405250810190610cb091906114f8565b6040518363ffffffff1660e01b8152600401610ccd929190611525565b6020604051808303816000875af1158015610cec573d6000803e3d6000fd5b505050506040513d601f19601f82011682018060405250810190610d109190611586565b505b8080610d1d906115b3565b915050610b3d565b5050565b6000604051905090565b600080fd5b600080fd5b600073ffffffffffffffffffffffffffffffffffffffff82169050919050565b6000610d6882610d3d565b9050919050565b610d7881610d5d565b8114610d8357600080fd5b50565b600081359050610d9581610d6f565b92915050565b600060208284031215610db157610db0610d33565b5b6000610dbf84828501610d86565b91505092915050565b600080fd5b600080fd5b600080fd5b60008083601f840112610ded57610dec610dc8565b5b8235905067ffffffffffffffff811115610e0a57610e09610dcd565b5b602083019150836001820283011115610e2657610e25610dd2565b5b9250929050565b60008060208385031215610e4457610e43610d33565b5b600083013567ffffffffffffffff811115610e6257610e61610d38565b5b610e6e85828601610dd7565b92509250509250929050565b6000819050919050565b610e8d81610e7a565b8114610e9857600080fd5b50565b600081359050610eaa81610e84565b92915050565b6000601f19601f8301169050919050565b7f4e487b7100000000000000000000000000000000000000000000000000000000600052604160045260246000fd5b610ef982610eb0565b810181811067ffffffffffffffff82111715610f1857610f17610ec1565b5b80604052505050565b6000610f2b610d29565b9050610f378282610ef0565b919050565b600067ffffffffffffffff821115610f5757610f56610ec1565b5b602082029050602081019050919050565b6000819050919050565b610f7b81610f68565b8114610f8657600080fd5b50565b600081359050610f9881610f72565b92915050565b6000610fb1610fac84610f3c565b610f21565b90508083825260208201905060208402830185811115610fd457610fd3610dd2565b5b835b81811015610ffd5780610fe98882610f89565b845260208401935050602081019050610fd6565b5050509392505050565b600082601f83011261101c5761101b610dc8565b5b813561102c848260208601610f9e565b91505092915050565b600060ff82169050919050565b61104b81611035565b811461105657600080fd5b50565b60008135905061106881611042565b92915050565b6000806000806080858703121561108857611087610d33565b5b600061109687828801610e9b565b945050602085013567ffffffffffffffff8111156110b7576110b6610d38565b5b6110c387828801611007565b93505060406110d487828801611059565b92505060606110e587828801611059565b91505092959194509250565b6110fa81610e7a565b82525050565b600060408201905061111560008301856110f1565b61112260208301846110f1565b9392505050565b600067ffffffffffffffff82111561114457611143610ec1565b5b602082029050602081019050919050565b600061116861116384611129565b610f21565b9050808382526020820190506020840283018581111561118b5761118a610dd2565b5b835b818110156111b457806111a08882610d86565b84526020840193505060208101905061118d565b5050509392505050565b600082601f8301126111d3576111d2610dc8565b5b81356111e3848260208601611155565b91505092915050565b60006020828403121561120257611201610d33565b5b600082013567ffffffffffffffff8111156112205761121f610d38565b5b61122c848285016111be565b91505092915050565b600081519050919050565b600082825260208201905092915050565b6000819050602082019050919050565b61126a81610f68565b82525050565b600061127c8383611261565b60208301905092915050565b6000602082019050919050565b60006112a082611235565b6112aa8185611240565b93506112b583611251565b8060005b838110156112e65781516112cd8882611270565b97506112d883611288565b9250506001810190506112b9565b5085935050505092915050565b6000602082019050818103600083015261130d8184611295565b905092915050565b60008060006060848603121561132e5761132d610d33565b5b600061133c86828701610e9b565b935050602084013567ffffffffffffffff81111561135d5761135c610d38565b5b61136986828701611007565b925050604061137a86828701611059565b9150509250925092565b600082825260208201905092915050565b7f216f776e65720000000000000000000000000000000000000000000000000000600082015250565b60006113cb600683611384565b91506113d682611395565b602082019050919050565b600060208201905081810360008301526113fa816113be565b9050919050565b7f4e487b7100000000000000000000000000000000000000000000000000000000600052601160045260246000fd5b600061143b82610e7a565b915061144683610e7a565b9250817fffffffffffffffffffffffffffffffffffffffffffffffffffffffffffffffff048311821515161561147f5761147e611401565b5b828202905092915050565b7f4e487b7100000000000000000000000000000000000000000000000000000000600052603260045260246000fd5b6114c281610d5d565b82525050565b60006020820190506114dd60008301846114b9565b92915050565b6000815190506114f281610e84565b92915050565b60006020828403121561150e5761150d610d33565b5b600061151c848285016114e3565b91505092915050565b600060408201905061153a60008301856114b9565b61154760208301846110f1565b9392505050565b60008115159050919050565b6115638161154e565b811461156e57600080fd5b50565b6000815190506115808161155a565b92915050565b60006020828403121561159c5761159b610d33565b5b60006115aa84828501611571565b91505092915050565b60006115be82611035565b915060ff8214156115d2576115d1611401565b5b60018201905091905056fea2646970667358221220a699d9fea614b061c12d9f027f7552e7cbca79903bb0777d6624392097cfef4764736f6c634300080a0033",
          "opcodes": "PUSH1 0x80 PUSH1 0x40 MSTORE CALLVALUE DUP1 ISZERO PUSH2 0x10 JUMPI PUSH1 0x0 DUP1 REVERT JUMPDEST POP CALLER PUSH1 0x0 DUP1 PUSH2 0x100 EXP DUP2 SLOAD DUP2 PUSH20 0xFFFFFFFFFFFFFFFFFFFFFFFFFFFFFFFFFFFFFFFF MUL NOT AND SWAP1 DUP4 PUSH20 0xFFFFFFFFFFFFFFFFFFFFFFFFFFFFFFFFFFFFFFFF AND MUL OR SWAP1 SSTORE POP PUSH2 0x1613 DUP1 PUSH2 0x60 PUSH1 0x0 CODECOPY PUSH1 0x0 RETURN INVALID PUSH1 0x80 PUSH1 0x40 MSTORE PUSH1 0x4 CALLDATASIZE LT PUSH2 0x4E JUMPI PUSH1 0x0 CALLDATALOAD PUSH1 0xE0 SHR DUP1 PUSH4 0x13AF4035 EQ PUSH2 0x57 JUMPI DUP1 PUSH4 0x253227F1 EQ PUSH2 0x80 JUMPI DUP1 PUSH4 0x376EE895 EQ PUSH2 0xA9 JUMPI DUP1 PUSH4 0xA928BA1E EQ PUSH2 0xDA JUMPI DUP1 PUSH4 0xE865F640 EQ PUSH2 0x117 JUMPI PUSH2 0x55 JUMP JUMPDEST CALLDATASIZE PUSH2 0x55 JUMPI STOP JUMPDEST STOP JUMPDEST CALLVALUE DUP1 ISZERO PUSH2 0x63 JUMPI PUSH1 0x0 DUP1 REVERT JUMPDEST POP PUSH2 0x7E PUSH1 0x4 DUP1 CALLDATASIZE SUB DUP2 ADD SWAP1 PUSH2 0x79 SWAP2 SWAP1 PUSH2 0xD9B JUMP JUMPDEST PUSH2 0x154 JUMP JUMPDEST STOP JUMPDEST CALLVALUE DUP1 ISZERO PUSH2 0x8C JUMPI PUSH1 0x0 DUP1 REVERT JUMPDEST POP PUSH2 0xA7 PUSH1 0x4 DUP1 CALLDATASIZE SUB DUP2 ADD SWAP1 PUSH2 0xA2 SWAP2 SWAP1 PUSH2 0xE2D JUMP JUMPDEST PUSH2 0x1EF JUMP JUMPDEST STOP JUMPDEST PUSH2 0xC3 PUSH1 0x4 DUP1 CALLDATASIZE SUB DUP2 ADD SWAP1 PUSH2 0xBE SWAP2 SWAP1 PUSH2 0x106E JUMP JUMPDEST PUSH2 0x2FF JUMP JUMPDEST PUSH1 0x40 MLOAD PUSH2 0xD1 SWAP3 SWAP2 SWAP1 PUSH2 0x1100 JUMP JUMPDEST PUSH1 0x40 MLOAD DUP1 SWAP2 SUB SWAP1 RETURN JUMPDEST CALLVALUE DUP1 ISZERO PUSH2 0xE6 JUMPI PUSH1 0x0 DUP1 REVERT JUMPDEST POP PUSH2 0x101 PUSH1 0x4 DUP1 CALLDATASIZE SUB DUP2 ADD SWAP1 PUSH2 0xFC SWAP2 SWAP1 PUSH2 0x11EC JUMP JUMPDEST PUSH2 0x739 JUMP JUMPDEST PUSH1 0x40 MLOAD PUSH2 0x10E SWAP2 SWAP1 PUSH2 0x12F3 JUMP JUMPDEST PUSH1 0x40 MLOAD DUP1 SWAP2 SUB SWAP1 RETURN JUMPDEST CALLVALUE DUP1 ISZERO PUSH2 0x123 JUMPI PUSH1 0x0 DUP1 REVERT JUMPDEST POP PUSH2 0x13E PUSH1 0x4 DUP1 CALLDATASIZE SUB DUP2 ADD SWAP1 PUSH2 0x139 SWAP2 SWAP1 PUSH2 0x1315 JUMP JUMPDEST PUSH2 0x933 JUMP JUMPDEST PUSH1 0x40 MLOAD PUSH2 0x14B SWAP2 SWAP1 PUSH2 0x12F3 JUMP JUMPDEST PUSH1 0x40 MLOAD DUP1 SWAP2 SUB SWAP1 RETURN JUMPDEST PUSH1 0x0 DUP1 SLOAD SWAP1 PUSH2 0x100 EXP SWAP1 DIV PUSH20 0xFFFFFFFFFFFFFFFFFFFFFFFFFFFFFFFFFFFFFFFF AND PUSH20 0xFFFFFFFFFFFFFFFFFFFFFFFFFFFFFFFFFFFFFFFF AND CALLER PUSH20 0xFFFFFFFFFFFFFFFFFFFFFFFFFFFFFFFFFFFFFFFF AND EQ PUSH2 0x1AC JUMPI PUSH1 0x0 DUP1 REVERT JUMPDEST DUP1 PUSH1 0x0 DUP1 PUSH2 0x100 EXP DUP2 SLOAD DUP2 PUSH20 0xFFFFFFFFFFFFFFFFFFFFFFFFFFFFFFFFFFFFFFFF MUL NOT AND SWAP1 DUP4 PUSH20 0xFFFFFFFFFFFFFFFFFFFFFFFFFFFFFFFFFFFFFFFF AND MUL OR SWAP1 SSTORE POP POP JUMP JUMPDEST PUSH1 0x0 DUP1 SLOAD SWAP1 PUSH2 0x100 EXP SWAP1 DIV PUSH20 0xFFFFFFFFFFFFFFFFFFFFFFFFFFFFFFFFFFFFFFFF AND PUSH20 0xFFFFFFFFFFFFFFFFFFFFFFFFFFFFFFFFFFFFFFFF AND CALLER PUSH20 0xFFFFFFFFFFFFFFFFFFFFFFFFFFFFFFFFFFFFFFFF AND EQ PUSH2 0x27D JUMPI PUSH1 0x40 MLOAD PUSH32 0x8C379A000000000000000000000000000000000000000000000000000000000 DUP2 MSTORE PUSH1 0x4 ADD PUSH2 0x274 SWAP1 PUSH2 0x13E1 JUMP JUMPDEST PUSH1 0x40 MLOAD DUP1 SWAP2 SUB SWAP1 REVERT JUMPDEST PUSH2 0x294 DUP3 DUP3 DUP2 ADD SWAP1 PUSH2 0x28F SWAP2 SWAP1 PUSH2 0x11EC JUMP JUMPDEST PUSH2 0xB3A JUMP JUMPDEST PUSH1 0x0 DUP1 SLOAD SWAP1 PUSH2 0x100 EXP SWAP1 DIV PUSH20 0xFFFFFFFFFFFFFFFFFFFFFFFFFFFFFFFFFFFFFFFF AND PUSH20 0xFFFFFFFFFFFFFFFFFFFFFFFFFFFFFFFFFFFFFFFF AND PUSH2 0x8FC SELFBALANCE SWAP1 DUP2 ISZERO MUL SWAP1 PUSH1 0x40 MLOAD PUSH1 0x0 PUSH1 0x40 MLOAD DUP1 DUP4 SUB DUP2 DUP6 DUP9 DUP9 CALL SWAP4 POP POP POP POP ISZERO DUP1 ISZERO PUSH2 0x2FA JUMPI RETURNDATASIZE PUSH1 0x0 DUP1 RETURNDATACOPY RETURNDATASIZE PUSH1 0x0 REVERT JUMPDEST POP POP POP JUMP JUMPDEST PUSH1 0x0 DUP1 PUSH1 0x0 DUP1 SLOAD SWAP1 PUSH2 0x100 EXP SWAP1 DIV PUSH20 0xFFFFFFFFFFFFFFFFFFFFFFFFFFFFFFFFFFFFFFFF AND PUSH20 0xFFFFFFFFFFFFFFFFFFFFFFFFFFFFFFFFFFFFFFFF AND CALLER PUSH20 0xFFFFFFFFFFFFFFFFFFFFFFFFFFFFFFFFFFFFFFFF AND EQ PUSH2 0x35A JUMPI PUSH1 0x0 DUP1 REVERT JUMPDEST PUSH1 0x0 PUSH2 0x367 DUP8 DUP8 DUP7 PUSH2 0x933 JUMP JUMPDEST SWAP1 POP PUSH2 0x3BC JUMP JUMPDEST PUSH32 0x8C379A000000000000000000000000000000000000000000000000000000000 PUSH1 0x0 MSTORE PUSH29 0x2000000000000000000000000000000000000000000000000000000000 PUSH1 0x20 MSTORE DUP1 PUSH1 0x40 MSTORE DUP2 PUSH1 0x0 REVERT JUMPDEST PUSH1 0x40 MLOAD DUP8 SWAP4 POP PUSH1 0x20 DUP3 ADD PUSH1 0x10 PUSH1 0x20 DUP10 ADD MLOAD SUB PUSH1 0x40 DUP10 ADD PUSH20 0xFFFFFFFFFFFFFFFFFFFFFFFFFFFFFFFFFFFFFFFF PUSH1 0x10 DUP3 MLOAD SUB AND PUSH32 0x23B872DD00000000000000000000000000000000000000000000000000000000 DUP6 MSTORE CALLER PUSH1 0x4 DUP7 ADD MSTORE DUP1 PUSH1 0x24 DUP7 ADD MSTORE DUP12 PUSH1 0x44 DUP7 ADD MSTORE PUSH1 0x0 DUP1 PUSH1 0x64 DUP8 PUSH1 0x0 DUP8 GAS CALL PUSH2 0x436 JUMPI RETURNDATASIZE PUSH1 0x0 REVERT JUMPDEST PUSH29 0x11696E76616C6964203000000000000000000000000000000000000000 PUSH1 0x20 DUP13 MLOAD MUL PUSH1 0x20 DUP5 SUB ADD JUMPDEST DUP1 DUP5 LT ISZERO PUSH2 0x6CB JUMPI PUSH32 0xFFFF00000000000000000000000000000000000000000000000000000000000 DUP5 MLOAD AND PUSH1 0xEC SHR PUSH20 0xFFFFFFFFFFFFFFFFFFFFFFFFFFFFFFFFFFFFFFFF PUSH1 0x10 DUP7 MLOAD SUB AND SWAP4 POP PUSH32 0x70A0823100000000000000000000000000000000000000000000000000000000 DUP9 MSTORE DUP4 PUSH1 0x4 DUP10 ADD MSTORE PUSH1 0x20 DUP9 PUSH1 0x24 DUP11 DUP10 GAS STATICCALL PUSH2 0x4EB JUMPI RETURNDATASIZE PUSH1 0x0 DUP1 RETURNDATACOPY RETURNDATASIZE PUSH1 0x0 REVERT JUMPDEST PUSH1 0x10 PUSH1 0x20 DUP7 ADD MLOAD SUB SWAP6 POP PUSH1 0x0 PUSH32 0xF000000000000000000000000000000000000000000000000000000000000000 DUP7 MLOAD AND EQ PUSH1 0x1 DUP2 EQ PUSH2 0x577 JUMPI DUP2 PUSH1 0x20 DUP10 ADD MLOAD DUP11 MLOAD SUB MUL SWAP12 POP PUSH2 0x2710 PUSH1 0x20 DUP10 ADD MLOAD MUL DUP13 ADD DUP9 MLOAD DUP14 MUL DIV SWAP12 POP PUSH32 0x22C0D9F00000000000000000000000000000000000000000000000000000000 DUP10 MSTORE DUP12 PUSH1 0x4 DUP11 ADD MSTORE PUSH1 0x0 PUSH1 0x24 DUP11 ADD MSTORE PUSH2 0x5C3 JUMP JUMPDEST DUP2 DUP9 MLOAD DUP11 MLOAD SUB MUL SWAP12 POP PUSH2 0x2710 DUP9 MLOAD MUL DUP13 ADD PUSH1 0x20 DUP10 ADD MLOAD DUP14 MUL DIV SWAP12 POP PUSH32 0x22C0D9F00000000000000000000000000000000000000000000000000000000 DUP10 MSTORE PUSH1 0x0 PUSH1 0x4 DUP11 ADD MSTORE DUP12 PUSH1 0x24 DUP11 ADD MSTORE JUMPDEST POP PUSH1 0x40 DUP3 SUB DUP6 LT PUSH1 0x1 DUP2 EQ PUSH2 0x5DF JUMPI PUSH1 0x0 DUP2 EQ PUSH2 0x634 JUMPI PUSH2 0x69F JUMP JUMPDEST PUSH20 0xFFFFFFFFFFFFFFFFFFFFFFFFFFFFFFFFFFFFFFFF PUSH1 0x10 PUSH1 0x40 DUP9 ADD MLOAD SUB AND PUSH1 0x44 DUP11 ADD MSTORE PUSH1 0x80 PUSH1 0x64 DUP11 ADD MSTORE PUSH1 0x0 PUSH1 0x84 DUP11 ADD MSTORE PUSH1 0x0 DUP1 PUSH1 0xA4 DUP12 PUSH1 0x0 PUSH1 0x10 DUP12 MLOAD SUB GAS CALL PUSH2 0x62F JUMPI PUSH2 0x62E PUSH1 0x55 DUP6 PUSH2 0x36E JUMP JUMPDEST JUMPDEST PUSH2 0x69F JUMP JUMPDEST PUSH1 0x1 DUP14 EQ ISZERO PUSH2 0x66F JUMPI DUP16 DUP13 LT ISZERO PUSH2 0x66E JUMPI PUSH2 0x66D PUSH1 0x5A PUSH29 0x164D696E2072657475726E206E6F742072656163686564000000000000 PUSH2 0x36E JUMP JUMPDEST JUMPDEST JUMPDEST CALLER PUSH1 0x44 DUP11 ADD MSTORE PUSH1 0x80 PUSH1 0x64 DUP11 ADD MSTORE PUSH1 0x0 PUSH1 0x84 DUP11 ADD MSTORE PUSH1 0x0 DUP1 PUSH1 0xA4 DUP12 PUSH1 0x0 DUP10 GAS CALL PUSH2 0x69E JUMPI PUSH2 0x69D PUSH1 0x55 DUP6 PUSH2 0x36E JUMP JUMPDEST JUMPDEST JUMPDEST POP PUSH1 0x40 DUP8 ADD SWAP7 POP PUSH20 0x100000000000000000000000000000000000000 DUP4 ADD SWAP3 POP POP PUSH1 0x40 DUP5 ADD SWAP4 POP PUSH2 0x45F JUMP JUMPDEST POP PUSH1 0x0 DUP12 GT ISZERO PUSH2 0x726 JUMPI PUSH32 0xD8CCD0F300000000000000000000000000000000000000000000000000000000 DUP7 MSTORE DUP11 PUSH1 0x4 DUP8 ADD MSTORE PUSH1 0x0 DUP1 PUSH1 0x44 DUP9 PUSH1 0x0 PUSH14 0x4946C0E9F43F4DEE607B0EF1FA1C GAS CALL PUSH2 0x725 JUMPI RETURNDATASIZE PUSH1 0x0 DUP1 RETURNDATACOPY RETURNDATASIZE PUSH1 0x0 REVERT JUMPDEST JUMPDEST GAS SWAP8 POP POP POP POP POP POP POP POP SWAP5 POP SWAP5 SWAP3 POP POP POP JUMP JUMPDEST PUSH1 0x60 PUSH1 0x8 DUP3 MLOAD PUSH2 0x749 SWAP2 SWAP1 PUSH2 0x1430 JUMP JUMPDEST PUSH8 0xFFFFFFFFFFFFFFFF DUP2 GT ISZERO PUSH2 0x762 JUMPI PUSH2 0x761 PUSH2 0xEC1 JUMP JUMPDEST JUMPDEST PUSH1 0x40 MLOAD SWAP1 DUP1 DUP3 MSTORE DUP1 PUSH1 0x20 MUL PUSH1 0x20 ADD DUP3 ADD PUSH1 0x40 MSTORE DUP1 ISZERO PUSH2 0x790 JUMPI DUP2 PUSH1 0x20 ADD PUSH1 0x20 DUP3 MUL DUP1 CALLDATASIZE DUP4 CALLDATACOPY DUP1 DUP3 ADD SWAP2 POP POP SWAP1 POP JUMPDEST POP SWAP1 POP PUSH1 0x40 MLOAD DUP3 MLOAD PUSH1 0x20 DUP5 ADD PUSH1 0x20 DUP5 ADD PUSH1 0x20 DUP4 MUL DUP3 ADD JUMPDEST DUP1 DUP4 LT ISZERO PUSH2 0x929 JUMPI DUP3 MLOAD DUP1 DUP4 MSTORE DUP1 PUSH1 0x20 DUP5 ADD MSTORE PUSH32 0xDFE168100000000000000000000000000000000000000000000000000000000 DUP7 MSTORE PUSH1 0x1 PUSH1 0x20 DUP8 PUSH1 0x4 DUP10 DUP6 GAS STATICCALL EQ ISZERO PUSH2 0x7F6 JUMPI DUP6 MLOAD PUSH1 0x20 DUP5 ADD MSTORE JUMPDEST DUP1 PUSH1 0x40 DUP5 ADD MSTORE PUSH32 0x313CE56700000000000000000000000000000000000000000000000000000000 DUP7 MSTORE PUSH1 0x1 PUSH1 0x20 DUP8 PUSH1 0x4 DUP10 PUSH1 0x20 DUP9 ADD MLOAD GAS STATICCALL EQ ISZERO PUSH2 0x83C JUMPI DUP6 MLOAD PUSH1 0x40 DUP5 ADD MSTORE JUMPDEST DUP1 PUSH1 0x60 DUP5 ADD MSTORE PUSH32 0xD21220A700000000000000000000000000000000000000000000000000000000 DUP7 MSTORE PUSH1 0x1 PUSH1 0x20 DUP8 PUSH1 0x4 DUP10 DUP6 GAS STATICCALL EQ ISZERO PUSH2 0x87E JUMPI DUP6 MLOAD PUSH1 0x60 DUP5 ADD MSTORE JUMPDEST DUP1 PUSH1 0x80 DUP5 ADD MSTORE PUSH32 0x313CE56700000000000000000000000000000000000000000000000000000000 DUP7 MSTORE PUSH1 0x1 PUSH1 0x20 DUP8 PUSH1 0x4 DUP10 PUSH1 0x60 DUP9 ADD MLOAD GAS STATICCALL EQ ISZERO PUSH2 0x8C4 JUMPI DUP6 MLOAD PUSH1 0x80 DUP5 ADD MSTORE JUMPDEST DUP1 PUSH1 0xA4 DUP5 ADD MSTORE DUP1 PUSH1 0xC4 DUP5 ADD MSTORE PUSH32 0x902F1AC00000000000000000000000000000000000000000000000000000000 DUP7 MSTORE PUSH1 0x1 PUSH1 0x40 DUP8 PUSH1 0x4 DUP10 DUP6 GAS STATICCALL EQ ISZERO PUSH2 0x916 JUMPI DUP6 MLOAD PUSH1 0xA4 DUP5 ADD MSTORE PUSH1 0x20 DUP7 ADD MLOAD PUSH1 0xC4 DUP5 ADD MSTORE JUMPDEST PUSH2 0x100 DUP4 ADD SWAP3 POP POP PUSH1 0x20 DUP4 ADD SWAP3 POP PUSH2 0x7A7 JUMP JUMPDEST POP POP POP POP POP SWAP2 SWAP1 POP JUMP JUMPDEST PUSH1 0x60 DUP3 MLOAD PUSH8 0xFFFFFFFFFFFFFFFF DUP2 GT ISZERO PUSH2 0x950 JUMPI PUSH2 0x94F PUSH2 0xEC1 JUMP JUMPDEST JUMPDEST PUSH1 0x40 MLOAD SWAP1 DUP1 DUP3 MSTORE DUP1 PUSH1 0x20 MUL PUSH1 0x20 ADD DUP3 ADD PUSH1 0x40 MSTORE DUP1 ISZERO PUSH2 0x97E JUMPI DUP2 PUSH1 0x20 ADD PUSH1 0x20 DUP3 MUL DUP1 CALLDATASIZE DUP4 CALLDATACOPY DUP1 DUP3 ADD SWAP2 POP POP SWAP1 POP JUMPDEST POP SWAP1 POP PUSH2 0x9D4 JUMP JUMPDEST PUSH32 0x8C379A000000000000000000000000000000000000000000000000000000000 PUSH1 0x0 MSTORE PUSH29 0x2000000000000000000000000000000000000000000000000000000000 PUSH1 0x20 MSTORE DUP1 PUSH1 0x40 MSTORE DUP2 PUSH1 0x0 REVERT JUMPDEST PUSH1 0x40 MLOAD PUSH1 0x20 DUP3 ADD PUSH1 0x40 DUP6 ADD DUP7 PUSH1 0x20 DUP8 MLOAD MUL PUSH1 0x20 DUP4 SUB ADD JUMPDEST DUP1 DUP4 LT ISZERO PUSH2 0xAF0 JUMPI PUSH32 0xFFFF00000000000000000000000000000000000000000000000000000000000 DUP4 MLOAD AND PUSH1 0xEC SHR PUSH32 0x902F1AC00000000000000000000000000000000000000000000000000000000 DUP7 MSTORE PUSH1 0x40 DUP7 PUSH1 0x4 DUP9 PUSH20 0xFFFFFFFFFFFFFFFFFFFFFFFFFFFFFFFFFFFFFFFF PUSH1 0x10 DUP10 MLOAD SUB AND GAS STATICCALL PUSH2 0xA6E JUMPI RETURNDATASIZE PUSH1 0x0 DUP1 RETURNDATACOPY RETURNDATASIZE PUSH1 0x0 REVERT JUMPDEST PUSH1 0x0 PUSH32 0xF000000000000000000000000000000000000000000000000000000000000000 DUP6 MLOAD AND EQ PUSH1 0x1 DUP2 EQ PUSH2 0xAB8 JUMPI PUSH2 0x2710 PUSH1 0x20 DUP9 ADD MLOAD MUL DUP3 DUP6 MUL ADD DUP3 DUP6 MUL DUP9 MLOAD MUL DIV SWAP4 POP PUSH2 0xACF JUMP JUMPDEST PUSH2 0x2710 DUP8 MLOAD MUL DUP3 DUP6 MUL ADD DUP3 DUP6 MUL PUSH1 0x20 DUP10 ADD MLOAD MUL DIV SWAP4 POP JUMPDEST POP DUP6 MLOAD DUP6 MSTORE PUSH1 0x20 DUP7 ADD MLOAD PUSH1 0x20 DUP7 ADD MSTORE PUSH1 0x40 DUP6 ADD SWAP5 POP POP PUSH1 0x40 DUP4 ADD SWAP3 POP PUSH2 0x9EB JUMP JUMPDEST POP PUSH1 0x1 DUP7 EQ ISZERO PUSH2 0xB2C JUMPI DUP8 DUP2 LT ISZERO PUSH2 0xB2B JUMPI PUSH2 0xB2A PUSH1 0x5A PUSH29 0x164D696E2072657475726E206E6F742072656163686564000000000000 PUSH2 0x986 JUMP JUMPDEST JUMPDEST JUMPDEST DUP1 DUP4 MSTORE POP POP POP POP SWAP4 SWAP3 POP POP POP JUMP JUMPDEST PUSH1 0x0 JUMPDEST DUP2 MLOAD DUP2 PUSH1 0xFF AND LT ISZERO PUSH2 0xD25 JUMPI PUSH1 0x1 ISZERO ISZERO PUSH1 0x1 PUSH1 0x0 DUP5 DUP5 PUSH1 0xFF AND DUP2 MLOAD DUP2 LT PUSH2 0xB67 JUMPI PUSH2 0xB66 PUSH2 0x148A JUMP JUMPDEST JUMPDEST PUSH1 0x20 MUL PUSH1 0x20 ADD ADD MLOAD PUSH20 0xFFFFFFFFFFFFFFFFFFFFFFFFFFFFFFFFFFFFFFFF AND PUSH20 0xFFFFFFFFFFFFFFFFFFFFFFFFFFFFFFFFFFFFFFFF AND DUP2 MSTORE PUSH1 0x20 ADD SWAP1 DUP2 MSTORE PUSH1 0x20 ADD PUSH1 0x0 KECCAK256 PUSH1 0x0 SWAP1 SLOAD SWAP1 PUSH2 0x100 EXP SWAP1 DIV PUSH1 0xFF AND ISZERO ISZERO EQ ISZERO PUSH2 0xD12 JUMPI DUP2 DUP2 PUSH1 0xFF AND DUP2 MLOAD DUP2 LT PUSH2 0xBD5 JUMPI PUSH2 0xBD4 PUSH2 0x148A JUMP JUMPDEST JUMPDEST PUSH1 0x20 MUL PUSH1 0x20 ADD ADD MLOAD PUSH20 0xFFFFFFFFFFFFFFFFFFFFFFFFFFFFFFFFFFFFFFFF AND PUSH4 0xA9059CBB PUSH1 0x0 DUP1 SLOAD SWAP1 PUSH2 0x100 EXP SWAP1 DIV PUSH20 0xFFFFFFFFFFFFFFFFFFFFFFFFFFFFFFFFFFFFFFFF AND DUP5 DUP5 PUSH1 0xFF AND DUP2 MLOAD DUP2 LT PUSH2 0xC2F JUMPI PUSH2 0xC2E PUSH2 0x148A JUMP JUMPDEST JUMPDEST PUSH1 0x20 MUL PUSH1 0x20 ADD ADD MLOAD PUSH20 0xFFFFFFFFFFFFFFFFFFFFFFFFFFFFFFFFFFFFFFFF AND PUSH4 0x70A08231 ADDRESS PUSH1 0x40 MLOAD DUP3 PUSH4 0xFFFFFFFF AND PUSH1 0xE0 SHL DUP2 MSTORE PUSH1 0x4 ADD PUSH2 0xC6F SWAP2 SWAP1 PUSH2 0x14C8 JUMP JUMPDEST PUSH1 0x20 PUSH1 0x40 MLOAD DUP1 DUP4 SUB DUP2 DUP7 GAS STATICCALL ISZERO DUP1 ISZERO PUSH2 0xC8C JUMPI RETURNDATASIZE PUSH1 0x0 DUP1 RETURNDATACOPY RETURNDATASIZE PUSH1 0x0 REVERT JUMPDEST POP POP POP POP PUSH1 0x40 MLOAD RETURNDATASIZE PUSH1 0x1F NOT PUSH1 0x1F DUP3 ADD AND DUP3 ADD DUP1 PUSH1 0x40 MSTORE POP DUP2 ADD SWAP1 PUSH2 0xCB0 SWAP2 SWAP1 PUSH2 0x14F8 JUMP JUMPDEST PUSH1 0x40 MLOAD DUP4 PUSH4 0xFFFFFFFF AND PUSH1 0xE0 SHL DUP2 MSTORE PUSH1 0x4 ADD PUSH2 0xCCD SWAP3 SWAP2 SWAP1 PUSH2 0x1525 JUMP JUMPDEST PUSH1 0x20 PUSH1 0x40 MLOAD DUP1 DUP4 SUB DUP2 PUSH1 0x0 DUP8 GAS CALL ISZERO DUP1 ISZERO PUSH2 0xCEC JUMPI RETURNDATASIZE PUSH1 0x0 DUP1 RETURNDATACOPY RETURNDATASIZE PUSH1 0x0 REVERT JUMPDEST POP POP POP POP PUSH1 0x40 MLOAD RETURNDATASIZE PUSH1 0x1F NOT PUSH1 0x1F DUP3 ADD AND DUP3 ADD DUP1 PUSH1 0x40 MSTORE POP DUP2 ADD SWAP1 PUSH2 0xD10 SWAP2 SWAP1 PUSH2 0x1586 JUMP JUMPDEST POP JUMPDEST DUP1 DUP1 PUSH2 0xD1D SWAP1 PUSH2 0x15B3 JUMP JUMPDEST SWAP2 POP POP PUSH2 0xB3D JUMP JUMPDEST POP POP JUMP JUMPDEST PUSH1 0x0 PUSH1 0x40 MLOAD SWAP1 POP SWAP1 JUMP JUMPDEST PUSH1 0x0 DUP1 REVERT JUMPDEST PUSH1 0x0 DUP1 REVERT JUMPDEST PUSH1 0x0 PUSH20 0xFFFFFFFFFFFFFFFFFFFFFFFFFFFFFFFFFFFFFFFF DUP3 AND SWAP1 POP SWAP2 SWAP1 POP JUMP JUMPDEST PUSH1 0x0 PUSH2 0xD68 DUP3 PUSH2 0xD3D JUMP JUMPDEST SWAP1 POP SWAP2 SWAP1 POP JUMP JUMPDEST PUSH2 0xD78 DUP2 PUSH2 0xD5D JUMP JUMPDEST DUP2 EQ PUSH2 0xD83 JUMPI PUSH1 0x0 DUP1 REVERT JUMPDEST POP JUMP JUMPDEST PUSH1 0x0 DUP2 CALLDATALOAD SWAP1 POP PUSH2 0xD95 DUP2 PUSH2 0xD6F JUMP JUMPDEST SWAP3 SWAP2 POP POP JUMP JUMPDEST PUSH1 0x0 PUSH1 0x20 DUP3 DUP5 SUB SLT ISZERO PUSH2 0xDB1 JUMPI PUSH2 0xDB0 PUSH2 0xD33 JUMP JUMPDEST JUMPDEST PUSH1 0x0 PUSH2 0xDBF DUP5 DUP3 DUP6 ADD PUSH2 0xD86 JUMP JUMPDEST SWAP2 POP POP SWAP3 SWAP2 POP POP JUMP JUMPDEST PUSH1 0x0 DUP1 REVERT JUMPDEST PUSH1 0x0 DUP1 REVERT JUMPDEST PUSH1 0x0 DUP1 REVERT JUMPDEST PUSH1 0x0 DUP1 DUP4 PUSH1 0x1F DUP5 ADD SLT PUSH2 0xDED JUMPI PUSH2 0xDEC PUSH2 0xDC8 JUMP JUMPDEST JUMPDEST DUP3 CALLDATALOAD SWAP1 POP PUSH8 0xFFFFFFFFFFFFFFFF DUP2 GT ISZERO PUSH2 0xE0A JUMPI PUSH2 0xE09 PUSH2 0xDCD JUMP JUMPDEST JUMPDEST PUSH1 0x20 DUP4 ADD SWAP2 POP DUP4 PUSH1 0x1 DUP3 MUL DUP4 ADD GT ISZERO PUSH2 0xE26 JUMPI PUSH2 0xE25 PUSH2 0xDD2 JUMP JUMPDEST JUMPDEST SWAP3 POP SWAP3 SWAP1 POP JUMP JUMPDEST PUSH1 0x0 DUP1 PUSH1 0x20 DUP4 DUP6 SUB SLT ISZERO PUSH2 0xE44 JUMPI PUSH2 0xE43 PUSH2 0xD33 JUMP JUMPDEST JUMPDEST PUSH1 0x0 DUP4 ADD CALLDATALOAD PUSH8 0xFFFFFFFFFFFFFFFF DUP2 GT ISZERO PUSH2 0xE62 JUMPI PUSH2 0xE61 PUSH2 0xD38 JUMP JUMPDEST JUMPDEST PUSH2 0xE6E DUP6 DUP3 DUP7 ADD PUSH2 0xDD7 JUMP JUMPDEST SWAP3 POP SWAP3 POP POP SWAP3 POP SWAP3 SWAP1 POP JUMP JUMPDEST PUSH1 0x0 DUP2 SWAP1 POP SWAP2 SWAP1 POP JUMP JUMPDEST PUSH2 0xE8D DUP2 PUSH2 0xE7A JUMP JUMPDEST DUP2 EQ PUSH2 0xE98 JUMPI PUSH1 0x0 DUP1 REVERT JUMPDEST POP JUMP JUMPDEST PUSH1 0x0 DUP2 CALLDATALOAD SWAP1 POP PUSH2 0xEAA DUP2 PUSH2 0xE84 JUMP JUMPDEST SWAP3 SWAP2 POP POP JUMP JUMPDEST PUSH1 0x0 PUSH1 0x1F NOT PUSH1 0x1F DUP4 ADD AND SWAP1 POP SWAP2 SWAP1 POP JUMP JUMPDEST PUSH32 0x4E487B7100000000000000000000000000000000000000000000000000000000 PUSH1 0x0 MSTORE PUSH1 0x41 PUSH1 0x4 MSTORE PUSH1 0x24 PUSH1 0x0 REVERT JUMPDEST PUSH2 0xEF9 DUP3 PUSH2 0xEB0 JUMP JUMPDEST DUP2 ADD DUP2 DUP2 LT PUSH8 0xFFFFFFFFFFFFFFFF DUP3 GT OR ISZERO PUSH2 0xF18 JUMPI PUSH2 0xF17 PUSH2 0xEC1 JUMP JUMPDEST JUMPDEST DUP1 PUSH1 0x40 MSTORE POP POP POP JUMP JUMPDEST PUSH1 0x0 PUSH2 0xF2B PUSH2 0xD29 JUMP JUMPDEST SWAP1 POP PUSH2 0xF37 DUP3 DUP3 PUSH2 0xEF0 JUMP JUMPDEST SWAP2 SWAP1 POP JUMP JUMPDEST PUSH1 0x0 PUSH8 0xFFFFFFFFFFFFFFFF DUP3 GT ISZERO PUSH2 0xF57 JUMPI PUSH2 0xF56 PUSH2 0xEC1 JUMP JUMPDEST JUMPDEST PUSH1 0x20 DUP3 MUL SWAP1 POP PUSH1 0x20 DUP2 ADD SWAP1 POP SWAP2 SWAP1 POP JUMP JUMPDEST PUSH1 0x0 DUP2 SWAP1 POP SWAP2 SWAP1 POP JUMP JUMPDEST PUSH2 0xF7B DUP2 PUSH2 0xF68 JUMP JUMPDEST DUP2 EQ PUSH2 0xF86 JUMPI PUSH1 0x0 DUP1 REVERT JUMPDEST POP JUMP JUMPDEST PUSH1 0x0 DUP2 CALLDATALOAD SWAP1 POP PUSH2 0xF98 DUP2 PUSH2 0xF72 JUMP JUMPDEST SWAP3 SWAP2 POP POP JUMP JUMPDEST PUSH1 0x0 PUSH2 0xFB1 PUSH2 0xFAC DUP5 PUSH2 0xF3C JUMP JUMPDEST PUSH2 0xF21 JUMP JUMPDEST SWAP1 POP DUP1 DUP4 DUP3 MSTORE PUSH1 0x20 DUP3 ADD SWAP1 POP PUSH1 0x20 DUP5 MUL DUP4 ADD DUP6 DUP2 GT ISZERO PUSH2 0xFD4 JUMPI PUSH2 0xFD3 PUSH2 0xDD2 JUMP JUMPDEST JUMPDEST DUP4 JUMPDEST DUP2 DUP2 LT ISZERO PUSH2 0xFFD JUMPI DUP1 PUSH2 0xFE9 DUP9 DUP3 PUSH2 0xF89 JUMP JUMPDEST DUP5 MSTORE PUSH1 0x20 DUP5 ADD SWAP4 POP POP PUSH1 0x20 DUP2 ADD SWAP1 POP PUSH2 0xFD6 JUMP JUMPDEST POP POP POP SWAP4 SWAP3 POP POP POP JUMP JUMPDEST PUSH1 0x0 DUP3 PUSH1 0x1F DUP4 ADD SLT PUSH2 0x101C JUMPI PUSH2 0x101B PUSH2 0xDC8 JUMP JUMPDEST JUMPDEST DUP2 CALLDATALOAD PUSH2 0x102C DUP5 DUP3 PUSH1 0x20 DUP7 ADD PUSH2 0xF9E JUMP JUMPDEST SWAP2 POP POP SWAP3 SWAP2 POP POP JUMP JUMPDEST PUSH1 0x0 PUSH1 0xFF DUP3 AND SWAP1 POP SWAP2 SWAP1 POP JUMP JUMPDEST PUSH2 0x104B DUP2 PUSH2 0x1035 JUMP JUMPDEST DUP2 EQ PUSH2 0x1056 JUMPI PUSH1 0x0 DUP1 REVERT JUMPDEST POP JUMP JUMPDEST PUSH1 0x0 DUP2 CALLDATALOAD SWAP1 POP PUSH2 0x1068 DUP2 PUSH2 0x1042 JUMP JUMPDEST SWAP3 SWAP2 POP POP JUMP JUMPDEST PUSH1 0x0 DUP1 PUSH1 0x0 DUP1 PUSH1 0x80 DUP6 DUP8 SUB SLT ISZERO PUSH2 0x1088 JUMPI PUSH2 0x1087 PUSH2 0xD33 JUMP JUMPDEST JUMPDEST PUSH1 0x0 PUSH2 0x1096 DUP8 DUP3 DUP9 ADD PUSH2 0xE9B JUMP JUMPDEST SWAP5 POP POP PUSH1 0x20 DUP6 ADD CALLDATALOAD PUSH8 0xFFFFFFFFFFFFFFFF DUP2 GT ISZERO PUSH2 0x10B7 JUMPI PUSH2 0x10B6 PUSH2 0xD38 JUMP JUMPDEST JUMPDEST PUSH2 0x10C3 DUP8 DUP3 DUP9 ADD PUSH2 0x1007 JUMP JUMPDEST SWAP4 POP POP PUSH1 0x40 PUSH2 0x10D4 DUP8 DUP3 DUP9 ADD PUSH2 0x1059 JUMP JUMPDEST SWAP3 POP POP PUSH1 0x60 PUSH2 0x10E5 DUP8 DUP3 DUP9 ADD PUSH2 0x1059 JUMP JUMPDEST SWAP2 POP POP SWAP3 SWAP6 SWAP2 SWAP5 POP SWAP3 POP JUMP JUMPDEST PUSH2 0x10FA DUP2 PUSH2 0xE7A JUMP JUMPDEST DUP3 MSTORE POP POP JUMP JUMPDEST PUSH1 0x0 PUSH1 0x40 DUP3 ADD SWAP1 POP PUSH2 0x1115 PUSH1 0x0 DUP4 ADD DUP6 PUSH2 0x10F1 JUMP JUMPDEST PUSH2 0x1122 PUSH1 0x20 DUP4 ADD DUP5 PUSH2 0x10F1 JUMP JUMPDEST SWAP4 SWAP3 POP POP POP JUMP JUMPDEST PUSH1 0x0 PUSH8 0xFFFFFFFFFFFFFFFF DUP3 GT ISZERO PUSH2 0x1144 JUMPI PUSH2 0x1143 PUSH2 0xEC1 JUMP JUMPDEST JUMPDEST PUSH1 0x20 DUP3 MUL SWAP1 POP PUSH1 0x20 DUP2 ADD SWAP1 POP SWAP2 SWAP1 POP JUMP JUMPDEST PUSH1 0x0 PUSH2 0x1168 PUSH2 0x1163 DUP5 PUSH2 0x1129 JUMP JUMPDEST PUSH2 0xF21 JUMP JUMPDEST SWAP1 POP DUP1 DUP4 DUP3 MSTORE PUSH1 0x20 DUP3 ADD SWAP1 POP PUSH1 0x20 DUP5 MUL DUP4 ADD DUP6 DUP2 GT ISZERO PUSH2 0x118B JUMPI PUSH2 0x118A PUSH2 0xDD2 JUMP JUMPDEST JUMPDEST DUP4 JUMPDEST DUP2 DUP2 LT ISZERO PUSH2 0x11B4 JUMPI DUP1 PUSH2 0x11A0 DUP9 DUP3 PUSH2 0xD86 JUMP JUMPDEST DUP5 MSTORE PUSH1 0x20 DUP5 ADD SWAP4 POP POP PUSH1 0x20 DUP2 ADD SWAP1 POP PUSH2 0x118D JUMP JUMPDEST POP POP POP SWAP4 SWAP3 POP POP POP JUMP JUMPDEST PUSH1 0x0 DUP3 PUSH1 0x1F DUP4 ADD SLT PUSH2 0x11D3 JUMPI PUSH2 0x11D2 PUSH2 0xDC8 JUMP JUMPDEST JUMPDEST DUP2 CALLDATALOAD PUSH2 0x11E3 DUP5 DUP3 PUSH1 0x20 DUP7 ADD PUSH2 0x1155 JUMP JUMPDEST SWAP2 POP POP SWAP3 SWAP2 POP POP JUMP JUMPDEST PUSH1 0x0 PUSH1 0x20 DUP3 DUP5 SUB SLT ISZERO PUSH2 0x1202 JUMPI PUSH2 0x1201 PUSH2 0xD33 JUMP JUMPDEST JUMPDEST PUSH1 0x0 DUP3 ADD CALLDATALOAD PUSH8 0xFFFFFFFFFFFFFFFF DUP2 GT ISZERO PUSH2 0x1220 JUMPI PUSH2 0x121F PUSH2 0xD38 JUMP JUMPDEST JUMPDEST PUSH2 0x122C DUP5 DUP3 DUP6 ADD PUSH2 0x11BE JUMP JUMPDEST SWAP2 POP POP SWAP3 SWAP2 POP POP JUMP JUMPDEST PUSH1 0x0 DUP2 MLOAD SWAP1 POP SWAP2 SWAP1 POP JUMP JUMPDEST PUSH1 0x0 DUP3 DUP3 MSTORE PUSH1 0x20 DUP3 ADD SWAP1 POP SWAP3 SWAP2 POP POP JUMP JUMPDEST PUSH1 0x0 DUP2 SWAP1 POP PUSH1 0x20 DUP3 ADD SWAP1 POP SWAP2 SWAP1 POP JUMP JUMPDEST PUSH2 0x126A DUP2 PUSH2 0xF68 JUMP JUMPDEST DUP3 MSTORE POP POP JUMP JUMPDEST PUSH1 0x0 PUSH2 0x127C DUP4 DUP4 PUSH2 0x1261 JUMP JUMPDEST PUSH1 0x20 DUP4 ADD SWAP1 POP SWAP3 SWAP2 POP POP JUMP JUMPDEST PUSH1 0x0 PUSH1 0x20 DUP3 ADD SWAP1 POP SWAP2 SWAP1 POP JUMP JUMPDEST PUSH1 0x0 PUSH2 0x12A0 DUP3 PUSH2 0x1235 JUMP JUMPDEST PUSH2 0x12AA DUP2 DUP6 PUSH2 0x1240 JUMP JUMPDEST SWAP4 POP PUSH2 0x12B5 DUP4 PUSH2 0x1251 JUMP JUMPDEST DUP1 PUSH1 0x0 JUMPDEST DUP4 DUP2 LT ISZERO PUSH2 0x12E6 JUMPI DUP2 MLOAD PUSH2 0x12CD DUP9 DUP3 PUSH2 0x1270 JUMP JUMPDEST SWAP8 POP PUSH2 0x12D8 DUP4 PUSH2 0x1288 JUMP JUMPDEST SWAP3 POP POP PUSH1 0x1 DUP2 ADD SWAP1 POP PUSH2 0x12B9 JUMP JUMPDEST POP DUP6 SWAP4 POP POP POP POP SWAP3 SWAP2 POP POP JUMP JUMPDEST PUSH1 0x0 PUSH1 0x20 DUP3 ADD SWAP1 POP DUP2 DUP2 SUB PUSH1 0x0 DUP4 ADD MSTORE PUSH2 0x130D DUP2 DUP5 PUSH2 0x1295 JUMP JUMPDEST SWAP1 POP SWAP3 SWAP2 POP POP JUMP JUMPDEST PUSH1 0x0 DUP1 PUSH1 0x0 PUSH1 0x60 DUP5 DUP7 SUB SLT ISZERO PUSH2 0x132E JUMPI PUSH2 0x132D PUSH2 0xD33 JUMP JUMPDEST JUMPDEST PUSH1 0x0 PUSH2 0x133C DUP7 DUP3 DUP8 ADD PUSH2 0xE9B JUMP JUMPDEST SWAP4 POP POP PUSH1 0x20 DUP5 ADD CALLDATALOAD PUSH8 0xFFFFFFFFFFFFFFFF DUP2 GT ISZERO PUSH2 0x135D JUMPI PUSH2 0x135C PUSH2 0xD38 JUMP JUMPDEST JUMPDEST PUSH2 0x1369 DUP7 DUP3 DUP8 ADD PUSH2 0x1007 JUMP JUMPDEST SWAP3 POP POP PUSH1 0x40 PUSH2 0x137A DUP7 DUP3 DUP8 ADD PUSH2 0x1059 JUMP JUMPDEST SWAP2 POP POP SWAP3 POP SWAP3 POP SWAP3 JUMP JUMPDEST PUSH1 0x0 DUP3 DUP3 MSTORE PUSH1 0x20 DUP3 ADD SWAP1 POP SWAP3 SWAP2 POP POP JUMP JUMPDEST PUSH32 0x216F776E65720000000000000000000000000000000000000000000000000000 PUSH1 0x0 DUP3 ADD MSTORE POP JUMP JUMPDEST PUSH1 0x0 PUSH2 0x13CB PUSH1 0x6 DUP4 PUSH2 0x1384 JUMP JUMPDEST SWAP2 POP PUSH2 0x13D6 DUP3 PUSH2 0x1395 JUMP JUMPDEST PUSH1 0x20 DUP3 ADD SWAP1 POP SWAP2 SWAP1 POP JUMP JUMPDEST PUSH1 0x0 PUSH1 0x20 DUP3 ADD SWAP1 POP DUP2 DUP2 SUB PUSH1 0x0 DUP4 ADD MSTORE PUSH2 0x13FA DUP2 PUSH2 0x13BE JUMP JUMPDEST SWAP1 POP SWAP2 SWAP1 POP JUMP JUMPDEST PUSH32 0x4E487B7100000000000000000000000000000000000000000000000000000000 PUSH1 0x0 MSTORE PUSH1 0x11 PUSH1 0x4 MSTORE PUSH1 0x24 PUSH1 0x0 REVERT JUMPDEST PUSH1 0x0 PUSH2 0x143B DUP3 PUSH2 0xE7A JUMP JUMPDEST SWAP2 POP PUSH2 0x1446 DUP4 PUSH2 0xE7A JUMP JUMPDEST SWAP3 POP DUP2 PUSH32 0xFFFFFFFFFFFFFFFFFFFFFFFFFFFFFFFFFFFFFFFFFFFFFFFFFFFFFFFFFFFFFFFF DIV DUP4 GT DUP3 ISZERO ISZERO AND ISZERO PUSH2 0x147F JUMPI PUSH2 0x147E PUSH2 0x1401 JUMP JUMPDEST JUMPDEST DUP3 DUP3 MUL SWAP1 POP SWAP3 SWAP2 POP POP JUMP JUMPDEST PUSH32 0x4E487B7100000000000000000000000000000000000000000000000000000000 PUSH1 0x0 MSTORE PUSH1 0x32 PUSH1 0x4 MSTORE PUSH1 0x24 PUSH1 0x0 REVERT JUMPDEST PUSH2 0x14C2 DUP2 PUSH2 0xD5D JUMP JUMPDEST DUP3 MSTORE POP POP JUMP JUMPDEST PUSH1 0x0 PUSH1 0x20 DUP3 ADD SWAP1 POP PUSH2 0x14DD PUSH1 0x0 DUP4 ADD DUP5 PUSH2 0x14B9 JUMP JUMPDEST SWAP3 SWAP2 POP POP JUMP JUMPDEST PUSH1 0x0 DUP2 MLOAD SWAP1 POP PUSH2 0x14F2 DUP2 PUSH2 0xE84 JUMP JUMPDEST SWAP3 SWAP2 POP POP JUMP JUMPDEST PUSH1 0x0 PUSH1 0x20 DUP3 DUP5 SUB SLT ISZERO PUSH2 0x150E JUMPI PUSH2 0x150D PUSH2 0xD33 JUMP JUMPDEST JUMPDEST PUSH1 0x0 PUSH2 0x151C DUP5 DUP3 DUP6 ADD PUSH2 0x14E3 JUMP JUMPDEST SWAP2 POP POP SWAP3 SWAP2 POP POP JUMP JUMPDEST PUSH1 0x0 PUSH1 0x40 DUP3 ADD SWAP1 POP PUSH2 0x153A PUSH1 0x0 DUP4 ADD DUP6 PUSH2 0x14B9 JUMP JUMPDEST PUSH2 0x1547 PUSH1 0x20 DUP4 ADD DUP5 PUSH2 0x10F1 JUMP JUMPDEST SWAP4 SWAP3 POP POP POP JUMP JUMPDEST PUSH1 0x0 DUP2 ISZERO ISZERO SWAP1 POP SWAP2 SWAP1 POP JUMP JUMPDEST PUSH2 0x1563 DUP2 PUSH2 0x154E JUMP JUMPDEST DUP2 EQ PUSH2 0x156E JUMPI PUSH1 0x0 DUP1 REVERT JUMPDEST POP JUMP JUMPDEST PUSH1 0x0 DUP2 MLOAD SWAP1 POP PUSH2 0x1580 DUP2 PUSH2 0x155A JUMP JUMPDEST SWAP3 SWAP2 POP POP JUMP JUMPDEST PUSH1 0x0 PUSH1 0x20 DUP3 DUP5 SUB SLT ISZERO PUSH2 0x159C JUMPI PUSH2 0x159B PUSH2 0xD33 JUMP JUMPDEST JUMPDEST PUSH1 0x0 PUSH2 0x15AA DUP5 DUP3 DUP6 ADD PUSH2 0x1571 JUMP JUMPDEST SWAP2 POP POP SWAP3 SWAP2 POP POP JUMP JUMPDEST PUSH1 0x0 PUSH2 0x15BE DUP3 PUSH2 0x1035 JUMP JUMPDEST SWAP2 POP PUSH1 0xFF DUP3 EQ ISZERO PUSH2 0x15D2 JUMPI PUSH2 0x15D1 PUSH2 0x1401 JUMP JUMPDEST JUMPDEST PUSH1 0x1 DUP3 ADD SWAP1 POP SWAP2 SWAP1 POP JUMP INVALID LOG2 PUSH5 0x6970667358 0x22 SLT KECCAK256 0xA6 SWAP10 0xD9 INVALID 0xA6 EQ 0xB0 PUSH2 0xC12D SWAP16 MUL PUSH32 0x7552E7CBCA79903BB0777D6624392097CFEF4764736F6C634300080A00330000 "
        },
        "methodIdentifiers": {
          "GetMetaData(address[])": "a928ba1e",
          "_swapSupportingFeesV4(uint256,bytes32[],uint8,uint8)": "376ee895",
          "getAmountOutV4(uint256,bytes32[],uint8)": "e865f640",
          "payout(bytes)": "253227f1",
          "setOwner(address)": "13af4035"
        }
      }
    }
  }
}