{
  "contracts/Chainrunner.sol": {
    "Chainrunner": {
      "abi": [
        {
          "inputs": [],
          "stateMutability": "nonpayable",
          "type": "constructor"
        },
        {
          "stateMutability": "payable",
          "type": "fallback"
        },
        {
          "inputs": [
            {
              "internalType": "address[]",
              "name": "route",
              "type": "address[]"
            }
          ],
          "name": "GetMetaData",
          "outputs": [
            {
              "internalType": "bytes32[]",
              "name": "MetaData",
              "type": "bytes32[]"
            }
          ],
          "stateMutability": "view",
          "type": "function"
        },
        {
          "inputs": [
            {
              "internalType": "uint256",
              "name": "AmountIn",
              "type": "uint256"
            },
            {
              "internalType": "bytes32[]",
              "name": "MetaDataEncrypted",
              "type": "bytes32[]"
            },
            {
              "internalType": "uint8",
              "name": "Chi",
              "type": "uint8"
            },
            {
              "internalType": "uint8",
              "name": "VerifyFlag",
              "type": "uint8"
            }
          ],
          "name": "_swapSupportingFeesV4",
          "outputs": [
            {
              "internalType": "uint256",
              "name": "AmountOut",
              "type": "uint256"
            },
            {
              "internalType": "uint256",
              "name": "GasUsed",
              "type": "uint256"
            }
          ],
          "stateMutability": "payable",
          "type": "function"
        },
        {
          "inputs": [
            {
              "internalType": "uint256",
              "name": "amountIn",
              "type": "uint256"
            },
            {
              "internalType": "bytes32[]",
              "name": "MetaDataEncrypted",
              "type": "bytes32[]"
            },
            {
              "internalType": "uint8",
              "name": "VerifyFlag",
              "type": "uint8"
            }
          ],
          "name": "getAmountOutV4",
          "outputs": [
            {
              "internalType": "bytes32[]",
              "name": "Out",
              "type": "bytes32[]"
            }
          ],
          "stateMutability": "view",
          "type": "function"
        },
        {
          "inputs": [
            {
              "internalType": "address",
              "name": "_o",
              "type": "address"
            }
          ],
          "name": "setOwner",
          "outputs": [],
          "stateMutability": "nonpayable",
          "type": "function"
        },
        {
          "stateMutability": "payable",
          "type": "receive"
        }
      ],
      "evm": {
        "bytecode": {
          "linkReferences": {},
          "object": "608060405234801561001057600080fd5b50336000806101000a81548173ffffffffffffffffffffffffffffffffffffffff021916908373ffffffffffffffffffffffffffffffffffffffff160217905550611141806100606000396000f3fe6080604052600436106100435760003560e01c806313af40351461004c578063376ee89514610075578063a928ba1e146100a6578063e865f640146100e35761004a565b3661004a57005b005b34801561005857600080fd5b50610073600480360381019061006e9190610b41565b610120565b005b61008f600480360381019061008a9190610d6c565b6101bb565b60405161009d929190610dfe565b60405180910390f35b3480156100b257600080fd5b506100cd60048036038101906100c89190610eea565b6106af565b6040516100da9190610ff1565b60405180910390f35b3480156100ef57600080fd5b5061010a60048036038101906101059190611013565b6108a9565b6040516101179190610ff1565b60405180910390f35b60008054906101000a900473ffffffffffffffffffffffffffffffffffffffff1673ffffffffffffffffffffffffffffffffffffffff163373ffffffffffffffffffffffffffffffffffffffff161461017857600080fd5b806000806101000a81548173ffffffffffffffffffffffffffffffffffffffff021916908373ffffffffffffffffffffffffffffffffffffffff16021790555050565b60008060008054906101000a900473ffffffffffffffffffffffffffffffffffffffff1673ffffffffffffffffffffffffffffffffffffffff163373ffffffffffffffffffffffffffffffffffffffff161461021657600080fd5b60006102238787866108a9565b9050610278565b7f08c379a0000000000000000000000000000000000000000000000000000000006000527c200000000000000000000000000000000000000000000000000000000060205280604052816000fd5b604051879350602082017f636861696e72756e6e65720000000000000000000000000000000000000000006020890151036040890173ffffffffffffffffffffffffffffffffffffffff7f636861696e72756e6e6572000000000000000000000000000000000000000000825103167f23b872dd0000000000000000000000000000000000000000000000000000000085523360048601528060248601528b60448601526000806064876000875af1610330573d6000fd5b7c11696e76616c696420300000000000000000000000000000000000000060208c510260208403015b80841015610641577f0ffff0000000000000000000000000000000000000000000000000000000000084511660ec1c73ffffffffffffffffffffffffffffffffffffffff7f636861696e72756e6e65720000000000000000000000000000000000000000008651031693507f70a0823100000000000000000000000000000000000000000000000000000000885283600489015260208860248a895afa610404573d6000803e3d6000fd5b7f636861696e72756e6e6572000000000000000000000000000000000000000000602086015103955060007ff00000000000000000000000000000000000000000000000000000000000000086511614600181146104af578160208901518a5103029b506127106020890151028c0188518d02049b507f022c0d9f0000000000000000000000000000000000000000000000000000000089528b60048a0152600060248a01526104fb565b8188518a5103029b506127108851028c0160208901518d02049b507f022c0d9f000000000000000000000000000000000000000000000000000000008952600060048a01528b60248a01525b506040820385106001811461051757600081146105aa57610615565b73ffffffffffffffffffffffffffffffffffffffff7f636861696e72756e6e65720000000000000000000000000000000000000000006040880151031660448a0152608060648a0152600060848a015260008060a48b60007f636861696e72756e6e65720000000000000000000000000000000000000000008b51035af16105a5576105a460558561022a565b5b610615565b60018d14156105e5578f8c10156105e4576105e3605a7c164d696e2072657475726e206e6f74207265616368656400000000000061022a565b5b5b3360448a0152608060648a0152600060848a015260008060a48b6000895af16106145761061360558561022a565b5b5b506040870196507301000000000000000000000000000000000000008301925050604084019350610359565b5060008b111561069c577fd8ccd0f30000000000000000000000000000000000000000000000000000000086528a600487015260008060448860006d4946c0e9f43f4dee607b0ef1fa1c5af161069b573d6000803e3d6000fd5b5b5a97505050505050505094509492505050565b6060600882516106bf91906110b1565b67ffffffffffffffff8111156106d8576106d7610bba565b5b6040519080825280602002602001820160405280156107065781602001602082028036833780820191505090505b509050604051825160208401602084016020830282015b8083101561089f5782518083528060208401527f0dfe16810000000000000000000000000000000000000000000000000000000086526001602087600489855afa141561076c57855160208401525b8060408401527f313ce567000000000000000000000000000000000000000000000000000000008652600160208760048960208801515afa14156107b257855160408401525b8060608401527fd21220a70000000000000000000000000000000000000000000000000000000086526001602087600489855afa14156107f457855160608401525b8060808401527f313ce567000000000000000000000000000000000000000000000000000000008652600160208760048960608801515afa141561083a57855160808401525b8060a48401528060c48401527f0902f1ac0000000000000000000000000000000000000000000000000000000086526001604087600489855afa141561088c57855160a4840152602086015160c48401525b610100830192505060208301925061071d565b5050505050919050565b6060825167ffffffffffffffff8111156108c6576108c5610bba565b5b6040519080825280602002602001820160405280156108f45781602001602082028036833780820191505090505b50905061094a565b7f08c379a0000000000000000000000000000000000000000000000000000000006000527c200000000000000000000000000000000000000000000000000000000060205280604052816000fd5b604051602082016040850186602087510260208303015b80831015610a85577f0ffff0000000000000000000000000000000000000000000000000000000000083511660ec1c7f0902f1ac00000000000000000000000000000000000000000000000000000000865260408660048873ffffffffffffffffffffffffffffffffffffffff7f636861696e72756e6e6572000000000000000000000000000000000000000000895103165afa610a03573d6000803e3d6000fd5b60007ff0000000000000000000000000000000000000000000000000000000000000008551161460018114610a4d5761271060208801510282850201828502885102049350610a64565b612710875102828502018285026020890151020493505b50855185526020860151602086015260408501945050604083019250610961565b506001861415610ac15787811015610ac057610abf605a7c164d696e2072657475726e206e6f7420726561636865640000000000006108fc565b5b5b808352505050509392505050565b6000604051905090565b600080fd5b600080fd5b600073ffffffffffffffffffffffffffffffffffffffff82169050919050565b6000610b0e82610ae3565b9050919050565b610b1e81610b03565b8114610b2957600080fd5b50565b600081359050610b3b81610b15565b92915050565b600060208284031215610b5757610b56610ad9565b5b6000610b6584828501610b2c565b91505092915050565b6000819050919050565b610b8181610b6e565b8114610b8c57600080fd5b50565b600081359050610b9e81610b78565b92915050565b600080fd5b6000601f19601f8301169050919050565b7f4e487b7100000000000000000000000000000000000000000000000000000000600052604160045260246000fd5b610bf282610ba9565b810181811067ffffffffffffffff82111715610c1157610c10610bba565b5b80604052505050565b6000610c24610acf565b9050610c308282610be9565b919050565b600067ffffffffffffffff821115610c5057610c4f610bba565b5b602082029050602081019050919050565b600080fd5b6000819050919050565b610c7981610c66565b8114610c8457600080fd5b50565b600081359050610c9681610c70565b92915050565b6000610caf610caa84610c35565b610c1a565b90508083825260208201905060208402830185811115610cd257610cd1610c61565b5b835b81811015610cfb5780610ce78882610c87565b845260208401935050602081019050610cd4565b5050509392505050565b600082601f830112610d1a57610d19610ba4565b5b8135610d2a848260208601610c9c565b91505092915050565b600060ff82169050919050565b610d4981610d33565b8114610d5457600080fd5b50565b600081359050610d6681610d40565b92915050565b60008060008060808587031215610d8657610d85610ad9565b5b6000610d9487828801610b8f565b945050602085013567ffffffffffffffff811115610db557610db4610ade565b5b610dc187828801610d05565b9350506040610dd287828801610d57565b9250506060610de387828801610d57565b91505092959194509250565b610df881610b6e565b82525050565b6000604082019050610e136000830185610def565b610e206020830184610def565b9392505050565b600067ffffffffffffffff821115610e4257610e41610bba565b5b602082029050602081019050919050565b6000610e66610e6184610e27565b610c1a565b90508083825260208201905060208402830185811115610e8957610e88610c61565b5b835b81811015610eb25780610e9e8882610b2c565b845260208401935050602081019050610e8b565b5050509392505050565b600082601f830112610ed157610ed0610ba4565b5b8135610ee1848260208601610e53565b91505092915050565b600060208284031215610f0057610eff610ad9565b5b600082013567ffffffffffffffff811115610f1e57610f1d610ade565b5b610f2a84828501610ebc565b91505092915050565b600081519050919050565b600082825260208201905092915050565b6000819050602082019050919050565b610f6881610c66565b82525050565b6000610f7a8383610f5f565b60208301905092915050565b6000602082019050919050565b6000610f9e82610f33565b610fa88185610f3e565b9350610fb383610f4f565b8060005b83811015610fe4578151610fcb8882610f6e565b9750610fd683610f86565b925050600181019050610fb7565b5085935050505092915050565b6000602082019050818103600083015261100b8184610f93565b905092915050565b60008060006060848603121561102c5761102b610ad9565b5b600061103a86828701610b8f565b935050602084013567ffffffffffffffff81111561105b5761105a610ade565b5b61106786828701610d05565b925050604061107886828701610d57565b9150509250925092565b7f4e487b7100000000000000000000000000000000000000000000000000000000600052601160045260246000fd5b60006110bc82610b6e565b91506110c783610b6e565b9250817fffffffffffffffffffffffffffffffffffffffffffffffffffffffffffffffff0483118215151615611100576110ff611082565b5b82820290509291505056fea26469706673582212204882539aaf58a6c7ca8308eba07079a5acad63bd0694883d596bfaa010807ca964736f6c634300080a0033",
          "opcodes": "PUSH1 0x80 PUSH1 0x40 MSTORE CALLVALUE DUP1 ISZERO PUSH2 0x10 JUMPI PUSH1 0x0 DUP1 REVERT JUMPDEST POP CALLER PUSH1 0x0 DUP1 PUSH2 0x100 EXP DUP2 SLOAD DUP2 PUSH20 0xFFFFFFFFFFFFFFFFFFFFFFFFFFFFFFFFFFFFFFFF MUL NOT AND SWAP1 DUP4 PUSH20 0xFFFFFFFFFFFFFFFFFFFFFFFFFFFFFFFFFFFFFFFF AND MUL OR SWAP1 SSTORE POP PUSH2 0x1141 DUP1 PUSH2 0x60 PUSH1 0x0 CODECOPY PUSH1 0x0 RETURN INVALID PUSH1 0x80 PUSH1 0x40 MSTORE PUSH1 0x4 CALLDATASIZE LT PUSH2 0x43 JUMPI PUSH1 0x0 CALLDATALOAD PUSH1 0xE0 SHR DUP1 PUSH4 0x13AF4035 EQ PUSH2 0x4C JUMPI DUP1 PUSH4 0x376EE895 EQ PUSH2 0x75 JUMPI DUP1 PUSH4 0xA928BA1E EQ PUSH2 0xA6 JUMPI DUP1 PUSH4 0xE865F640 EQ PUSH2 0xE3 JUMPI PUSH2 0x4A JUMP JUMPDEST CALLDATASIZE PUSH2 0x4A JUMPI STOP JUMPDEST STOP JUMPDEST CALLVALUE DUP1 ISZERO PUSH2 0x58 JUMPI PUSH1 0x0 DUP1 REVERT JUMPDEST POP PUSH2 0x73 PUSH1 0x4 DUP1 CALLDATASIZE SUB DUP2 ADD SWAP1 PUSH2 0x6E SWAP2 SWAP1 PUSH2 0xB41 JUMP JUMPDEST PUSH2 0x120 JUMP JUMPDEST STOP JUMPDEST PUSH2 0x8F PUSH1 0x4 DUP1 CALLDATASIZE SUB DUP2 ADD SWAP1 PUSH2 0x8A SWAP2 SWAP1 PUSH2 0xD6C JUMP JUMPDEST PUSH2 0x1BB JUMP JUMPDEST PUSH1 0x40 MLOAD PUSH2 0x9D SWAP3 SWAP2 SWAP1 PUSH2 0xDFE JUMP JUMPDEST PUSH1 0x40 MLOAD DUP1 SWAP2 SUB SWAP1 RETURN JUMPDEST CALLVALUE DUP1 ISZERO PUSH2 0xB2 JUMPI PUSH1 0x0 DUP1 REVERT JUMPDEST POP PUSH2 0xCD PUSH1 0x4 DUP1 CALLDATASIZE SUB DUP2 ADD SWAP1 PUSH2 0xC8 SWAP2 SWAP1 PUSH2 0xEEA JUMP JUMPDEST PUSH2 0x6AF JUMP JUMPDEST PUSH1 0x40 MLOAD PUSH2 0xDA SWAP2 SWAP1 PUSH2 0xFF1 JUMP JUMPDEST PUSH1 0x40 MLOAD DUP1 SWAP2 SUB SWAP1 RETURN JUMPDEST CALLVALUE DUP1 ISZERO PUSH2 0xEF JUMPI PUSH1 0x0 DUP1 REVERT JUMPDEST POP PUSH2 0x10A PUSH1 0x4 DUP1 CALLDATASIZE SUB DUP2 ADD SWAP1 PUSH2 0x105 SWAP2 SWAP1 PUSH2 0x1013 JUMP JUMPDEST PUSH2 0x8A9 JUMP JUMPDEST PUSH1 0x40 MLOAD PUSH2 0x117 SWAP2 SWAP1 PUSH2 0xFF1 JUMP JUMPDEST PUSH1 0x40 MLOAD DUP1 SWAP2 SUB SWAP1 RETURN JUMPDEST PUSH1 0x0 DUP1 SLOAD SWAP1 PUSH2 0x100 EXP SWAP1 DIV PUSH20 0xFFFFFFFFFFFFFFFFFFFFFFFFFFFFFFFFFFFFFFFF AND PUSH20 0xFFFFFFFFFFFFFFFFFFFFFFFFFFFFFFFFFFFFFFFF AND CALLER PUSH20 0xFFFFFFFFFFFFFFFFFFFFFFFFFFFFFFFFFFFFFFFF AND EQ PUSH2 0x178 JUMPI PUSH1 0x0 DUP1 REVERT JUMPDEST DUP1 PUSH1 0x0 DUP1 PUSH2 0x100 EXP DUP2 SLOAD DUP2 PUSH20 0xFFFFFFFFFFFFFFFFFFFFFFFFFFFFFFFFFFFFFFFF MUL NOT AND SWAP1 DUP4 PUSH20 0xFFFFFFFFFFFFFFFFFFFFFFFFFFFFFFFFFFFFFFFF AND MUL OR SWAP1 SSTORE POP POP JUMP JUMPDEST PUSH1 0x0 DUP1 PUSH1 0x0 DUP1 SLOAD SWAP1 PUSH2 0x100 EXP SWAP1 DIV PUSH20 0xFFFFFFFFFFFFFFFFFFFFFFFFFFFFFFFFFFFFFFFF AND PUSH20 0xFFFFFFFFFFFFFFFFFFFFFFFFFFFFFFFFFFFFFFFF AND CALLER PUSH20 0xFFFFFFFFFFFFFFFFFFFFFFFFFFFFFFFFFFFFFFFF AND EQ PUSH2 0x216 JUMPI PUSH1 0x0 DUP1 REVERT JUMPDEST PUSH1 0x0 PUSH2 0x223 DUP8 DUP8 DUP7 PUSH2 0x8A9 JUMP JUMPDEST SWAP1 POP PUSH2 0x278 JUMP JUMPDEST PUSH32 0x8C379A000000000000000000000000000000000000000000000000000000000 PUSH1 0x0 MSTORE PUSH29 0x2000000000000000000000000000000000000000000000000000000000 PUSH1 0x20 MSTORE DUP1 PUSH1 0x40 MSTORE DUP2 PUSH1 0x0 REVERT JUMPDEST PUSH1 0x40 MLOAD DUP8 SWAP4 POP PUSH1 0x20 DUP3 ADD PUSH32 0x636861696E72756E6E6572000000000000000000000000000000000000000000 PUSH1 0x20 DUP10 ADD MLOAD SUB PUSH1 0x40 DUP10 ADD PUSH20 0xFFFFFFFFFFFFFFFFFFFFFFFFFFFFFFFFFFFFFFFF PUSH32 0x636861696E72756E6E6572000000000000000000000000000000000000000000 DUP3 MLOAD SUB AND PUSH32 0x23B872DD00000000000000000000000000000000000000000000000000000000 DUP6 MSTORE CALLER PUSH1 0x4 DUP7 ADD MSTORE DUP1 PUSH1 0x24 DUP7 ADD MSTORE DUP12 PUSH1 0x44 DUP7 ADD MSTORE PUSH1 0x0 DUP1 PUSH1 0x64 DUP8 PUSH1 0x0 DUP8 GAS CALL PUSH2 0x330 JUMPI RETURNDATASIZE PUSH1 0x0 REVERT JUMPDEST PUSH29 0x11696E76616C6964203000000000000000000000000000000000000000 PUSH1 0x20 DUP13 MLOAD MUL PUSH1 0x20 DUP5 SUB ADD JUMPDEST DUP1 DUP5 LT ISZERO PUSH2 0x641 JUMPI PUSH32 0xFFFF00000000000000000000000000000000000000000000000000000000000 DUP5 MLOAD AND PUSH1 0xEC SHR PUSH20 0xFFFFFFFFFFFFFFFFFFFFFFFFFFFFFFFFFFFFFFFF PUSH32 0x636861696E72756E6E6572000000000000000000000000000000000000000000 DUP7 MLOAD SUB AND SWAP4 POP PUSH32 0x70A0823100000000000000000000000000000000000000000000000000000000 DUP9 MSTORE DUP4 PUSH1 0x4 DUP10 ADD MSTORE PUSH1 0x20 DUP9 PUSH1 0x24 DUP11 DUP10 GAS STATICCALL PUSH2 0x404 JUMPI RETURNDATASIZE PUSH1 0x0 DUP1 RETURNDATACOPY RETURNDATASIZE PUSH1 0x0 REVERT JUMPDEST PUSH32 0x636861696E72756E6E6572000000000000000000000000000000000000000000 PUSH1 0x20 DUP7 ADD MLOAD SUB SWAP6 POP PUSH1 0x0 PUSH32 0xF000000000000000000000000000000000000000000000000000000000000000 DUP7 MLOAD AND EQ PUSH1 0x1 DUP2 EQ PUSH2 0x4AF JUMPI DUP2 PUSH1 0x20 DUP10 ADD MLOAD DUP11 MLOAD SUB MUL SWAP12 POP PUSH2 0x2710 PUSH1 0x20 DUP10 ADD MLOAD MUL DUP13 ADD DUP9 MLOAD DUP14 MUL DIV SWAP12 POP PUSH32 0x22C0D9F00000000000000000000000000000000000000000000000000000000 DUP10 MSTORE DUP12 PUSH1 0x4 DUP11 ADD MSTORE PUSH1 0x0 PUSH1 0x24 DUP11 ADD MSTORE PUSH2 0x4FB JUMP JUMPDEST DUP2 DUP9 MLOAD DUP11 MLOAD SUB MUL SWAP12 POP PUSH2 0x2710 DUP9 MLOAD MUL DUP13 ADD PUSH1 0x20 DUP10 ADD MLOAD DUP14 MUL DIV SWAP12 POP PUSH32 0x22C0D9F00000000000000000000000000000000000000000000000000000000 DUP10 MSTORE PUSH1 0x0 PUSH1 0x4 DUP11 ADD MSTORE DUP12 PUSH1 0x24 DUP11 ADD MSTORE JUMPDEST POP PUSH1 0x40 DUP3 SUB DUP6 LT PUSH1 0x1 DUP2 EQ PUSH2 0x517 JUMPI PUSH1 0x0 DUP2 EQ PUSH2 0x5AA JUMPI PUSH2 0x615 JUMP JUMPDEST PUSH20 0xFFFFFFFFFFFFFFFFFFFFFFFFFFFFFFFFFFFFFFFF PUSH32 0x636861696E72756E6E6572000000000000000000000000000000000000000000 PUSH1 0x40 DUP9 ADD MLOAD SUB AND PUSH1 0x44 DUP11 ADD MSTORE PUSH1 0x80 PUSH1 0x64 DUP11 ADD MSTORE PUSH1 0x0 PUSH1 0x84 DUP11 ADD MSTORE PUSH1 0x0 DUP1 PUSH1 0xA4 DUP12 PUSH1 0x0 PUSH32 0x636861696E72756E6E6572000000000000000000000000000000000000000000 DUP12 MLOAD SUB GAS CALL PUSH2 0x5A5 JUMPI PUSH2 0x5A4 PUSH1 0x55 DUP6 PUSH2 0x22A JUMP JUMPDEST JUMPDEST PUSH2 0x615 JUMP JUMPDEST PUSH1 0x1 DUP14 EQ ISZERO PUSH2 0x5E5 JUMPI DUP16 DUP13 LT ISZERO PUSH2 0x5E4 JUMPI PUSH2 0x5E3 PUSH1 0x5A PUSH29 0x164D696E2072657475726E206E6F742072656163686564000000000000 PUSH2 0x22A JUMP JUMPDEST JUMPDEST JUMPDEST CALLER PUSH1 0x44 DUP11 ADD MSTORE PUSH1 0x80 PUSH1 0x64 DUP11 ADD MSTORE PUSH1 0x0 PUSH1 0x84 DUP11 ADD MSTORE PUSH1 0x0 DUP1 PUSH1 0xA4 DUP12 PUSH1 0x0 DUP10 GAS CALL PUSH2 0x614 JUMPI PUSH2 0x613 PUSH1 0x55 DUP6 PUSH2 0x22A JUMP JUMPDEST JUMPDEST JUMPDEST POP PUSH1 0x40 DUP8 ADD SWAP7 POP PUSH20 0x100000000000000000000000000000000000000 DUP4 ADD SWAP3 POP POP PUSH1 0x40 DUP5 ADD SWAP4 POP PUSH2 0x359 JUMP JUMPDEST POP PUSH1 0x0 DUP12 GT ISZERO PUSH2 0x69C JUMPI PUSH32 0xD8CCD0F300000000000000000000000000000000000000000000000000000000 DUP7 MSTORE DUP11 PUSH1 0x4 DUP8 ADD MSTORE PUSH1 0x0 DUP1 PUSH1 0x44 DUP9 PUSH1 0x0 PUSH14 0x4946C0E9F43F4DEE607B0EF1FA1C GAS CALL PUSH2 0x69B JUMPI RETURNDATASIZE PUSH1 0x0 DUP1 RETURNDATACOPY RETURNDATASIZE PUSH1 0x0 REVERT JUMPDEST JUMPDEST GAS SWAP8 POP POP POP POP POP POP POP POP SWAP5 POP SWAP5 SWAP3 POP POP POP JUMP JUMPDEST PUSH1 0x60 PUSH1 0x8 DUP3 MLOAD PUSH2 0x6BF SWAP2 SWAP1 PUSH2 0x10B1 JUMP JUMPDEST PUSH8 0xFFFFFFFFFFFFFFFF DUP2 GT ISZERO PUSH2 0x6D8 JUMPI PUSH2 0x6D7 PUSH2 0xBBA JUMP JUMPDEST JUMPDEST PUSH1 0x40 MLOAD SWAP1 DUP1 DUP3 MSTORE DUP1 PUSH1 0x20 MUL PUSH1 0x20 ADD DUP3 ADD PUSH1 0x40 MSTORE DUP1 ISZERO PUSH2 0x706 JUMPI DUP2 PUSH1 0x20 ADD PUSH1 0x20 DUP3 MUL DUP1 CALLDATASIZE DUP4 CALLDATACOPY DUP1 DUP3 ADD SWAP2 POP POP SWAP1 POP JUMPDEST POP SWAP1 POP PUSH1 0x40 MLOAD DUP3 MLOAD PUSH1 0x20 DUP5 ADD PUSH1 0x20 DUP5 ADD PUSH1 0x20 DUP4 MUL DUP3 ADD JUMPDEST DUP1 DUP4 LT ISZERO PUSH2 0x89F JUMPI DUP3 MLOAD DUP1 DUP4 MSTORE DUP1 PUSH1 0x20 DUP5 ADD MSTORE PUSH32 0xDFE168100000000000000000000000000000000000000000000000000000000 DUP7 MSTORE PUSH1 0x1 PUSH1 0x20 DUP8 PUSH1 0x4 DUP10 DUP6 GAS STATICCALL EQ ISZERO PUSH2 0x76C JUMPI DUP6 MLOAD PUSH1 0x20 DUP5 ADD MSTORE JUMPDEST DUP1 PUSH1 0x40 DUP5 ADD MSTORE PUSH32 0x313CE56700000000000000000000000000000000000000000000000000000000 DUP7 MSTORE PUSH1 0x1 PUSH1 0x20 DUP8 PUSH1 0x4 DUP10 PUSH1 0x20 DUP9 ADD MLOAD GAS STATICCALL EQ ISZERO PUSH2 0x7B2 JUMPI DUP6 MLOAD PUSH1 0x40 DUP5 ADD MSTORE JUMPDEST DUP1 PUSH1 0x60 DUP5 ADD MSTORE PUSH32 0xD21220A700000000000000000000000000000000000000000000000000000000 DUP7 MSTORE PUSH1 0x1 PUSH1 0x20 DUP8 PUSH1 0x4 DUP10 DUP6 GAS STATICCALL EQ ISZERO PUSH2 0x7F4 JUMPI DUP6 MLOAD PUSH1 0x60 DUP5 ADD MSTORE JUMPDEST DUP1 PUSH1 0x80 DUP5 ADD MSTORE PUSH32 0x313CE56700000000000000000000000000000000000000000000000000000000 DUP7 MSTORE PUSH1 0x1 PUSH1 0x20 DUP8 PUSH1 0x4 DUP10 PUSH1 0x60 DUP9 ADD MLOAD GAS STATICCALL EQ ISZERO PUSH2 0x83A JUMPI DUP6 MLOAD PUSH1 0x80 DUP5 ADD MSTORE JUMPDEST DUP1 PUSH1 0xA4 DUP5 ADD MSTORE DUP1 PUSH1 0xC4 DUP5 ADD MSTORE PUSH32 0x902F1AC00000000000000000000000000000000000000000000000000000000 DUP7 MSTORE PUSH1 0x1 PUSH1 0x40 DUP8 PUSH1 0x4 DUP10 DUP6 GAS STATICCALL EQ ISZERO PUSH2 0x88C JUMPI DUP6 MLOAD PUSH1 0xA4 DUP5 ADD MSTORE PUSH1 0x20 DUP7 ADD MLOAD PUSH1 0xC4 DUP5 ADD MSTORE JUMPDEST PUSH2 0x100 DUP4 ADD SWAP3 POP POP PUSH1 0x20 DUP4 ADD SWAP3 POP PUSH2 0x71D JUMP JUMPDEST POP POP POP POP POP SWAP2 SWAP1 POP JUMP JUMPDEST PUSH1 0x60 DUP3 MLOAD PUSH8 0xFFFFFFFFFFFFFFFF DUP2 GT ISZERO PUSH2 0x8C6 JUMPI PUSH2 0x8C5 PUSH2 0xBBA JUMP JUMPDEST JUMPDEST PUSH1 0x40 MLOAD SWAP1 DUP1 DUP3 MSTORE DUP1 PUSH1 0x20 MUL PUSH1 0x20 ADD DUP3 ADD PUSH1 0x40 MSTORE DUP1 ISZERO PUSH2 0x8F4 JUMPI DUP2 PUSH1 0x20 ADD PUSH1 0x20 DUP3 MUL DUP1 CALLDATASIZE DUP4 CALLDATACOPY DUP1 DUP3 ADD SWAP2 POP POP SWAP1 POP JUMPDEST POP SWAP1 POP PUSH2 0x94A JUMP JUMPDEST PUSH32 0x8C379A000000000000000000000000000000000000000000000000000000000 PUSH1 0x0 MSTORE PUSH29 0x2000000000000000000000000000000000000000000000000000000000 PUSH1 0x20 MSTORE DUP1 PUSH1 0x40 MSTORE DUP2 PUSH1 0x0 REVERT JUMPDEST PUSH1 0x40 MLOAD PUSH1 0x20 DUP3 ADD PUSH1 0x40 DUP6 ADD DUP7 PUSH1 0x20 DUP8 MLOAD MUL PUSH1 0x20 DUP4 SUB ADD JUMPDEST DUP1 DUP4 LT ISZERO PUSH2 0xA85 JUMPI PUSH32 0xFFFF00000000000000000000000000000000000000000000000000000000000 DUP4 MLOAD AND PUSH1 0xEC SHR PUSH32 0x902F1AC00000000000000000000000000000000000000000000000000000000 DUP7 MSTORE PUSH1 0x40 DUP7 PUSH1 0x4 DUP9 PUSH20 0xFFFFFFFFFFFFFFFFFFFFFFFFFFFFFFFFFFFFFFFF PUSH32 0x636861696E72756E6E6572000000000000000000000000000000000000000000 DUP10 MLOAD SUB AND GAS STATICCALL PUSH2 0xA03 JUMPI RETURNDATASIZE PUSH1 0x0 DUP1 RETURNDATACOPY RETURNDATASIZE PUSH1 0x0 REVERT JUMPDEST PUSH1 0x0 PUSH32 0xF000000000000000000000000000000000000000000000000000000000000000 DUP6 MLOAD AND EQ PUSH1 0x1 DUP2 EQ PUSH2 0xA4D JUMPI PUSH2 0x2710 PUSH1 0x20 DUP9 ADD MLOAD MUL DUP3 DUP6 MUL ADD DUP3 DUP6 MUL DUP9 MLOAD MUL DIV SWAP4 POP PUSH2 0xA64 JUMP JUMPDEST PUSH2 0x2710 DUP8 MLOAD MUL DUP3 DUP6 MUL ADD DUP3 DUP6 MUL PUSH1 0x20 DUP10 ADD MLOAD MUL DIV SWAP4 POP JUMPDEST POP DUP6 MLOAD DUP6 MSTORE PUSH1 0x20 DUP7 ADD MLOAD PUSH1 0x20 DUP7 ADD MSTORE PUSH1 0x40 DUP6 ADD SWAP5 POP POP PUSH1 0x40 DUP4 ADD SWAP3 POP PUSH2 0x961 JUMP JUMPDEST POP PUSH1 0x1 DUP7 EQ ISZERO PUSH2 0xAC1 JUMPI DUP8 DUP2 LT ISZERO PUSH2 0xAC0 JUMPI PUSH2 0xABF PUSH1 0x5A PUSH29 0x164D696E2072657475726E206E6F742072656163686564000000000000 PUSH2 0x8FC JUMP JUMPDEST JUMPDEST JUMPDEST DUP1 DUP4 MSTORE POP POP POP POP SWAP4 SWAP3 POP POP POP JUMP JUMPDEST PUSH1 0x0 PUSH1 0x40 MLOAD SWAP1 POP SWAP1 JUMP JUMPDEST PUSH1 0x0 DUP1 REVERT JUMPDEST PUSH1 0x0 DUP1 REVERT JUMPDEST PUSH1 0x0 PUSH20 0xFFFFFFFFFFFFFFFFFFFFFFFFFFFFFFFFFFFFFFFF DUP3 AND SWAP1 POP SWAP2 SWAP1 POP JUMP JUMPDEST PUSH1 0x0 PUSH2 0xB0E DUP3 PUSH2 0xAE3 JUMP JUMPDEST SWAP1 POP SWAP2 SWAP1 POP JUMP JUMPDEST PUSH2 0xB1E DUP2 PUSH2 0xB03 JUMP JUMPDEST DUP2 EQ PUSH2 0xB29 JUMPI PUSH1 0x0 DUP1 REVERT JUMPDEST POP JUMP JUMPDEST PUSH1 0x0 DUP2 CALLDATALOAD SWAP1 POP PUSH2 0xB3B DUP2 PUSH2 0xB15 JUMP JUMPDEST SWAP3 SWAP2 POP POP JUMP JUMPDEST PUSH1 0x0 PUSH1 0x20 DUP3 DUP5 SUB SLT ISZERO PUSH2 0xB57 JUMPI PUSH2 0xB56 PUSH2 0xAD9 JUMP JUMPDEST JUMPDEST PUSH1 0x0 PUSH2 0xB65 DUP5 DUP3 DUP6 ADD PUSH2 0xB2C JUMP JUMPDEST SWAP2 POP POP SWAP3 SWAP2 POP POP JUMP JUMPDEST PUSH1 0x0 DUP2 SWAP1 POP SWAP2 SWAP1 POP JUMP JUMPDEST PUSH2 0xB81 DUP2 PUSH2 0xB6E JUMP JUMPDEST DUP2 EQ PUSH2 0xB8C JUMPI PUSH1 0x0 DUP1 REVERT JUMPDEST POP JUMP JUMPDEST PUSH1 0x0 DUP2 CALLDATALOAD SWAP1 POP PUSH2 0xB9E DUP2 PUSH2 0xB78 JUMP JUMPDEST SWAP3 SWAP2 POP POP JUMP JUMPDEST PUSH1 0x0 DUP1 REVERT JUMPDEST PUSH1 0x0 PUSH1 0x1F NOT PUSH1 0x1F DUP4 ADD AND SWAP1 POP SWAP2 SWAP1 POP JUMP JUMPDEST PUSH32 0x4E487B7100000000000000000000000000000000000000000000000000000000 PUSH1 0x0 MSTORE PUSH1 0x41 PUSH1 0x4 MSTORE PUSH1 0x24 PUSH1 0x0 REVERT JUMPDEST PUSH2 0xBF2 DUP3 PUSH2 0xBA9 JUMP JUMPDEST DUP2 ADD DUP2 DUP2 LT PUSH8 0xFFFFFFFFFFFFFFFF DUP3 GT OR ISZERO PUSH2 0xC11 JUMPI PUSH2 0xC10 PUSH2 0xBBA JUMP JUMPDEST JUMPDEST DUP1 PUSH1 0x40 MSTORE POP POP POP JUMP JUMPDEST PUSH1 0x0 PUSH2 0xC24 PUSH2 0xACF JUMP JUMPDEST SWAP1 POP PUSH2 0xC30 DUP3 DUP3 PUSH2 0xBE9 JUMP JUMPDEST SWAP2 SWAP1 POP JUMP JUMPDEST PUSH1 0x0 PUSH8 0xFFFFFFFFFFFFFFFF DUP3 GT ISZERO PUSH2 0xC50 JUMPI PUSH2 0xC4F PUSH2 0xBBA JUMP JUMPDEST JUMPDEST PUSH1 0x20 DUP3 MUL SWAP1 POP PUSH1 0x20 DUP2 ADD SWAP1 POP SWAP2 SWAP1 POP JUMP JUMPDEST PUSH1 0x0 DUP1 REVERT JUMPDEST PUSH1 0x0 DUP2 SWAP1 POP SWAP2 SWAP1 POP JUMP JUMPDEST PUSH2 0xC79 DUP2 PUSH2 0xC66 JUMP JUMPDEST DUP2 EQ PUSH2 0xC84 JUMPI PUSH1 0x0 DUP1 REVERT JUMPDEST POP JUMP JUMPDEST PUSH1 0x0 DUP2 CALLDATALOAD SWAP1 POP PUSH2 0xC96 DUP2 PUSH2 0xC70 JUMP JUMPDEST SWAP3 SWAP2 POP POP JUMP JUMPDEST PUSH1 0x0 PUSH2 0xCAF PUSH2 0xCAA DUP5 PUSH2 0xC35 JUMP JUMPDEST PUSH2 0xC1A JUMP JUMPDEST SWAP1 POP DUP1 DUP4 DUP3 MSTORE PUSH1 0x20 DUP3 ADD SWAP1 POP PUSH1 0x20 DUP5 MUL DUP4 ADD DUP6 DUP2 GT ISZERO PUSH2 0xCD2 JUMPI PUSH2 0xCD1 PUSH2 0xC61 JUMP JUMPDEST JUMPDEST DUP4 JUMPDEST DUP2 DUP2 LT ISZERO PUSH2 0xCFB JUMPI DUP1 PUSH2 0xCE7 DUP9 DUP3 PUSH2 0xC87 JUMP JUMPDEST DUP5 MSTORE PUSH1 0x20 DUP5 ADD SWAP4 POP POP PUSH1 0x20 DUP2 ADD SWAP1 POP PUSH2 0xCD4 JUMP JUMPDEST POP POP POP SWAP4 SWAP3 POP POP POP JUMP JUMPDEST PUSH1 0x0 DUP3 PUSH1 0x1F DUP4 ADD SLT PUSH2 0xD1A JUMPI PUSH2 0xD19 PUSH2 0xBA4 JUMP JUMPDEST JUMPDEST DUP2 CALLDATALOAD PUSH2 0xD2A DUP5 DUP3 PUSH1 0x20 DUP7 ADD PUSH2 0xC9C JUMP JUMPDEST SWAP2 POP POP SWAP3 SWAP2 POP POP JUMP JUMPDEST PUSH1 0x0 PUSH1 0xFF DUP3 AND SWAP1 POP SWAP2 SWAP1 POP JUMP JUMPDEST PUSH2 0xD49 DUP2 PUSH2 0xD33 JUMP JUMPDEST DUP2 EQ PUSH2 0xD54 JUMPI PUSH1 0x0 DUP1 REVERT JUMPDEST POP JUMP JUMPDEST PUSH1 0x0 DUP2 CALLDATALOAD SWAP1 POP PUSH2 0xD66 DUP2 PUSH2 0xD40 JUMP JUMPDEST SWAP3 SWAP2 POP POP JUMP JUMPDEST PUSH1 0x0 DUP1 PUSH1 0x0 DUP1 PUSH1 0x80 DUP6 DUP8 SUB SLT ISZERO PUSH2 0xD86 JUMPI PUSH2 0xD85 PUSH2 0xAD9 JUMP JUMPDEST JUMPDEST PUSH1 0x0 PUSH2 0xD94 DUP8 DUP3 DUP9 ADD PUSH2 0xB8F JUMP JUMPDEST SWAP5 POP POP PUSH1 0x20 DUP6 ADD CALLDATALOAD PUSH8 0xFFFFFFFFFFFFFFFF DUP2 GT ISZERO PUSH2 0xDB5 JUMPI PUSH2 0xDB4 PUSH2 0xADE JUMP JUMPDEST JUMPDEST PUSH2 0xDC1 DUP8 DUP3 DUP9 ADD PUSH2 0xD05 JUMP JUMPDEST SWAP4 POP POP PUSH1 0x40 PUSH2 0xDD2 DUP8 DUP3 DUP9 ADD PUSH2 0xD57 JUMP JUMPDEST SWAP3 POP POP PUSH1 0x60 PUSH2 0xDE3 DUP8 DUP3 DUP9 ADD PUSH2 0xD57 JUMP JUMPDEST SWAP2 POP POP SWAP3 SWAP6 SWAP2 SWAP5 POP SWAP3 POP JUMP JUMPDEST PUSH2 0xDF8 DUP2 PUSH2 0xB6E JUMP JUMPDEST DUP3 MSTORE POP POP JUMP JUMPDEST PUSH1 0x0 PUSH1 0x40 DUP3 ADD SWAP1 POP PUSH2 0xE13 PUSH1 0x0 DUP4 ADD DUP6 PUSH2 0xDEF JUMP JUMPDEST PUSH2 0xE20 PUSH1 0x20 DUP4 ADD DUP5 PUSH2 0xDEF JUMP JUMPDEST SWAP4 SWAP3 POP POP POP JUMP JUMPDEST PUSH1 0x0 PUSH8 0xFFFFFFFFFFFFFFFF DUP3 GT ISZERO PUSH2 0xE42 JUMPI PUSH2 0xE41 PUSH2 0xBBA JUMP JUMPDEST JUMPDEST PUSH1 0x20 DUP3 MUL SWAP1 POP PUSH1 0x20 DUP2 ADD SWAP1 POP SWAP2 SWAP1 POP JUMP JUMPDEST PUSH1 0x0 PUSH2 0xE66 PUSH2 0xE61 DUP5 PUSH2 0xE27 JUMP JUMPDEST PUSH2 0xC1A JUMP JUMPDEST SWAP1 POP DUP1 DUP4 DUP3 MSTORE PUSH1 0x20 DUP3 ADD SWAP1 POP PUSH1 0x20 DUP5 MUL DUP4 ADD DUP6 DUP2 GT ISZERO PUSH2 0xE89 JUMPI PUSH2 0xE88 PUSH2 0xC61 JUMP JUMPDEST JUMPDEST DUP4 JUMPDEST DUP2 DUP2 LT ISZERO PUSH2 0xEB2 JUMPI DUP1 PUSH2 0xE9E DUP9 DUP3 PUSH2 0xB2C JUMP JUMPDEST DUP5 MSTORE PUSH1 0x20 DUP5 ADD SWAP4 POP POP PUSH1 0x20 DUP2 ADD SWAP1 POP PUSH2 0xE8B JUMP JUMPDEST POP POP POP SWAP4 SWAP3 POP POP POP JUMP JUMPDEST PUSH1 0x0 DUP3 PUSH1 0x1F DUP4 ADD SLT PUSH2 0xED1 JUMPI PUSH2 0xED0 PUSH2 0xBA4 JUMP JUMPDEST JUMPDEST DUP2 CALLDATALOAD PUSH2 0xEE1 DUP5 DUP3 PUSH1 0x20 DUP7 ADD PUSH2 0xE53 JUMP JUMPDEST SWAP2 POP POP SWAP3 SWAP2 POP POP JUMP JUMPDEST PUSH1 0x0 PUSH1 0x20 DUP3 DUP5 SUB SLT ISZERO PUSH2 0xF00 JUMPI PUSH2 0xEFF PUSH2 0xAD9 JUMP JUMPDEST JUMPDEST PUSH1 0x0 DUP3 ADD CALLDATALOAD PUSH8 0xFFFFFFFFFFFFFFFF DUP2 GT ISZERO PUSH2 0xF1E JUMPI PUSH2 0xF1D PUSH2 0xADE JUMP JUMPDEST JUMPDEST PUSH2 0xF2A DUP5 DUP3 DUP6 ADD PUSH2 0xEBC JUMP JUMPDEST SWAP2 POP POP SWAP3 SWAP2 POP POP JUMP JUMPDEST PUSH1 0x0 DUP2 MLOAD SWAP1 POP SWAP2 SWAP1 POP JUMP JUMPDEST PUSH1 0x0 DUP3 DUP3 MSTORE PUSH1 0x20 DUP3 ADD SWAP1 POP SWAP3 SWAP2 POP POP JUMP JUMPDEST PUSH1 0x0 DUP2 SWAP1 POP PUSH1 0x20 DUP3 ADD SWAP1 POP SWAP2 SWAP1 POP JUMP JUMPDEST PUSH2 0xF68 DUP2 PUSH2 0xC66 JUMP JUMPDEST DUP3 MSTORE POP POP JUMP JUMPDEST PUSH1 0x0 PUSH2 0xF7A DUP4 DUP4 PUSH2 0xF5F JUMP JUMPDEST PUSH1 0x20 DUP4 ADD SWAP1 POP SWAP3 SWAP2 POP POP JUMP JUMPDEST PUSH1 0x0 PUSH1 0x20 DUP3 ADD SWAP1 POP SWAP2 SWAP1 POP JUMP JUMPDEST PUSH1 0x0 PUSH2 0xF9E DUP3 PUSH2 0xF33 JUMP JUMPDEST PUSH2 0xFA8 DUP2 DUP6 PUSH2 0xF3E JUMP JUMPDEST SWAP4 POP PUSH2 0xFB3 DUP4 PUSH2 0xF4F JUMP JUMPDEST DUP1 PUSH1 0x0 JUMPDEST DUP4 DUP2 LT ISZERO PUSH2 0xFE4 JUMPI DUP2 MLOAD PUSH2 0xFCB DUP9 DUP3 PUSH2 0xF6E JUMP JUMPDEST SWAP8 POP PUSH2 0xFD6 DUP4 PUSH2 0xF86 JUMP JUMPDEST SWAP3 POP POP PUSH1 0x1 DUP2 ADD SWAP1 POP PUSH2 0xFB7 JUMP JUMPDEST POP DUP6 SWAP4 POP POP POP POP SWAP3 SWAP2 POP POP JUMP JUMPDEST PUSH1 0x0 PUSH1 0x20 DUP3 ADD SWAP1 POP DUP2 DUP2 SUB PUSH1 0x0 DUP4 ADD MSTORE PUSH2 0x100B DUP2 DUP5 PUSH2 0xF93 JUMP JUMPDEST SWAP1 POP SWAP3 SWAP2 POP POP JUMP JUMPDEST PUSH1 0x0 DUP1 PUSH1 0x0 PUSH1 0x60 DUP5 DUP7 SUB SLT ISZERO PUSH2 0x102C JUMPI PUSH2 0x102B PUSH2 0xAD9 JUMP JUMPDEST JUMPDEST PUSH1 0x0 PUSH2 0x103A DUP7 DUP3 DUP8 ADD PUSH2 0xB8F JUMP JUMPDEST SWAP4 POP POP PUSH1 0x20 DUP5 ADD CALLDATALOAD PUSH8 0xFFFFFFFFFFFFFFFF DUP2 GT ISZERO PUSH2 0x105B JUMPI PUSH2 0x105A PUSH2 0xADE JUMP JUMPDEST JUMPDEST PUSH2 0x1067 DUP7 DUP3 DUP8 ADD PUSH2 0xD05 JUMP JUMPDEST SWAP3 POP POP PUSH1 0x40 PUSH2 0x1078 DUP7 DUP3 DUP8 ADD PUSH2 0xD57 JUMP JUMPDEST SWAP2 POP POP SWAP3 POP SWAP3 POP SWAP3 JUMP JUMPDEST PUSH32 0x4E487B7100000000000000000000000000000000000000000000000000000000 PUSH1 0x0 MSTORE PUSH1 0x11 PUSH1 0x4 MSTORE PUSH1 0x24 PUSH1 0x0 REVERT JUMPDEST PUSH1 0x0 PUSH2 0x10BC DUP3 PUSH2 0xB6E JUMP JUMPDEST SWAP2 POP PUSH2 0x10C7 DUP4 PUSH2 0xB6E JUMP JUMPDEST SWAP3 POP DUP2 PUSH32 0xFFFFFFFFFFFFFFFFFFFFFFFFFFFFFFFFFFFFFFFFFFFFFFFFFFFFFFFFFFFFFFFF DIV DUP4 GT DUP3 ISZERO ISZERO AND ISZERO PUSH2 0x1100 JUMPI PUSH2 0x10FF PUSH2 0x1082 JUMP JUMPDEST JUMPDEST DUP3 DUP3 MUL SWAP1 POP SWAP3 SWAP2 POP POP JUMP INVALID LOG2 PUSH5 0x6970667358 0x22 SLT KECCAK256 BASEFEE DUP3 MSTORE8 SWAP11 0xAF PC 0xA6 0xC7 0xCA DUP4 ADDMOD 0xEB LOG0 PUSH17 0x79A5ACAD63BD0694883D596BFAA010807C 0xA9 PUSH5 0x736F6C6343 STOP ADDMOD EXP STOP CALLER "
        },
        "methodIdentifiers": {
          "GetMetaData(address[])": "a928ba1e",
          "_swapSupportingFeesV4(uint256,bytes32[],uint8,uint8)": "376ee895",
          "getAmountOutV4(uint256,bytes32[],uint8)": "e865f640",
          "setOwner(address)": "13af4035"
        }
      }
    }
  }
}