{
  "_format": "hh-sol-artifact-1",
  "contractName": "ArbV1",
  "sourceName": "contracts/ArbV1.sol",
  "abi": [
    {
      "inputs": [],
      "stateMutability": "nonpayable",
      "type": "constructor"
    },
    {
      "inputs": [
        {
          "internalType": "address[]",
          "name": "route",
          "type": "address[]"
        }
      ],
      "name": "GetMetaData",
      "outputs": [
        {
          "internalType": "bytes32[]",
          "name": "MetaData",
          "type": "bytes32[]"
        }
      ],
      "stateMutability": "view",
      "type": "function"
    },
    {
      "inputs": [
        {
          "internalType": "address",
          "name": "_o",
          "type": "address"
        }
      ],
      "name": "setOwner",
      "outputs": [],
      "stateMutability": "nonpayable",
      "type": "function"
    }
  ],
  "bytecode": "0x608060405234801561001057600080fd5b50336000806101000a81548173ffffffffffffffffffffffffffffffffffffffff021916908373ffffffffffffffffffffffffffffffffffffffff160217905550610710806100606000396000f3fe608060405234801561001057600080fd5b50600436106100365760003560e01c806313af40351461003b578063a928ba1e14610057575b600080fd5b6100556004803603810190610050919061038e565b610087565b005b610071600480360381019061006c9190610514565b610122565b60405161007e9190610625565b60405180910390f35b60008054906101000a900473ffffffffffffffffffffffffffffffffffffffff1673ffffffffffffffffffffffffffffffffffffffff163373ffffffffffffffffffffffffffffffffffffffff16146100df57600080fd5b806000806101000a81548173ffffffffffffffffffffffffffffffffffffffff021916908373ffffffffffffffffffffffffffffffffffffffff16021790555050565b6060600882516101329190610680565b67ffffffffffffffff81111561014b5761014a6103d1565b5b6040519080825280602002602001820160405280156101795781602001602082028036833780820191505090505b509050604051825160208401602084016020830282015b808310156103125782518083528060208401527f0dfe16810000000000000000000000000000000000000000000000000000000086526001602087600489855afa14156101df57855160208401525b8060408401527f313ce567000000000000000000000000000000000000000000000000000000008652600160208760048960208801515afa141561022557855160408401525b8060608401527fd21220a70000000000000000000000000000000000000000000000000000000086526001602087600489855afa141561026757855160608401525b8060808401527f313ce567000000000000000000000000000000000000000000000000000000008652600160208760048960608801515afa14156102ad57855160808401525b8060a48401528060c48401527f0902f1ac0000000000000000000000000000000000000000000000000000000086526001604087600489855afa14156102ff57855160a4840152602086015160c48401525b6101008301925050602083019250610190565b5050505050919050565b6000604051905090565b600080fd5b600080fd5b600073ffffffffffffffffffffffffffffffffffffffff82169050919050565b600061035b82610330565b9050919050565b61036b81610350565b811461037657600080fd5b50565b60008135905061038881610362565b92915050565b6000602082840312156103a4576103a3610326565b5b60006103b284828501610379565b91505092915050565b600080fd5b6000601f19601f8301169050919050565b7f4e487b7100000000000000000000000000000000000000000000000000000000600052604160045260246000fd5b610409826103c0565b810181811067ffffffffffffffff82111715610428576104276103d1565b5b80604052505050565b600061043b61031c565b90506104478282610400565b919050565b600067ffffffffffffffff821115610467576104666103d1565b5b602082029050602081019050919050565b600080fd5b600061049061048b8461044c565b610431565b905080838252602082019050602084028301858111156104b3576104b2610478565b5b835b818110156104dc57806104c88882610379565b8452602084019350506020810190506104b5565b5050509392505050565b600082601f8301126104fb576104fa6103bb565b5b813561050b84826020860161047d565b91505092915050565b60006020828403121561052a57610529610326565b5b600082013567ffffffffffffffff8111156105485761054761032b565b5b610554848285016104e6565b91505092915050565b600081519050919050565b600082825260208201905092915050565b6000819050602082019050919050565b6000819050919050565b61059c81610589565b82525050565b60006105ae8383610593565b60208301905092915050565b6000602082019050919050565b60006105d28261055d565b6105dc8185610568565b93506105e783610579565b8060005b838110156106185781516105ff88826105a2565b975061060a836105ba565b9250506001810190506105eb565b5085935050505092915050565b6000602082019050818103600083015261063f81846105c7565b905092915050565b6000819050919050565b7f4e487b7100000000000000000000000000000000000000000000000000000000600052601160045260246000fd5b600061068b82610647565b915061069683610647565b9250817fffffffffffffffffffffffffffffffffffffffffffffffffffffffffffffffff04831182151516156106cf576106ce610651565b5b82820290509291505056fea2646970667358221220d406e6e38f602099c1422abe54026ad153100c6509a6a8fecccec5b0e1c9495a64736f6c634300080a0033",
  "linkReferences": {},
  "deployedLinkReferences": {}
}